:1000000010308A0000280000FF00030E8301A100C9
:100010000A08A0008A010408A2007708A300780853
:10002000A4007908A5007A08A60003170D08031399
:10003000A70003170F080313A80003170C080313E6
:10004000A90003170E080313AA00831383128B1E43
:100050002B280B194C28220884002308F7002408B9
:10006000F8002508F9002608FA00270803178D0074
:100070000313280803178F000313290803178C00A4
:1000800003132A0803178E00031320088A00210E89
:100090008300FF0E7F0E09008A110A12382A0A1007
:1000A0008A100A11563E03188A0A8200003400346E
:1000B000003400340034003400345F340034003441
:1000C0000034073400340734003414347F341434DB
:1000D0007F34143424342A347F342A3412342334C1
:1000E000133408346434623436344934563420349A
:1000F00050340034083407340334003400341C34E2
:100100002234413400340034413422341C3400346D
:100110002A341C347F341C342A34083408343E34E6
:1001200008340834003480347034303400340834F7
:10013000083408340834083400340034603460343F
:100140000034203410340834043402343E34513442
:10015000493445343E34003442347F344034003432
:1001600072344934493449344634213441344934B1
:100170004D3433341834143412347F34103427346B
:1001800045344534453439343C344A3449344934AF
:10019000313441342134113409340734363449348C
:1001A00049344934363446344934493429341E34C8
:1001B0000034003414340034003400344034343417
:1001C00000340034003408341434223441341434FC
:1001D00014341434143414340034413422341434B8
:1001E0000834023401345934093406343E3441347D
:1001F0005D3459344E347C341234113412347C342E
:100200007F3449344934493436343E3441344134FE
:10021000413422347F344134413441343E347F34DC
:1002200049344934493441347F3409340934093478
:1002300001343E3441344134513473347F34083412
:10024000083408347F34003441347F34413400347E
:100250002034403441343F3401347F340834143482
:10026000223441347F3440344034403440347F348D
:1002700002341C3402347F347F34043408341034A4
:100280007F343E344134413441343E347F34093488
:100290000934093406343E344134513421345E3457
:1002A0007F3409341934293446340A148A100A1167
:1002B0005C3E03188A0A82002634493449344934A2
:1002C0003234033401347F34013403343F34403456
:1002D000403440343F341F342034403420341F3401
:1002E0003F344034383440343F34633414340834B9
:1002F0001434633403340434783404340334613400
:10030000593449344D34433400347F34413441341A
:10031000413402340434083410342034003441347D
:10032000413441347F34043402340134023404341F
:1003300040344034403440344034003403340734D3
:1003400008340034203454345434783440347F3406
:100350002834443444343834383444344434443411
:10036000283438344434443428347F3438345434D2
:10037000543454341834003408347E34093402348C
:100380001834A434A4349C3478347F3408340434CE
:1003900004347834003444347D3440340034203420
:1003A000403440343D3400347F34103428344434F5
:1003B0000034003441347F34403400347C3404341D
:1003C0007834043478347C34083404340434783495
:1003D00038344434443444343834FC341834243409
:1003E000243418341834243424341834FC347C3441
:1003F0000834043404340834483454345434543401
:100400002434043404343F34443424343C344034FD
:10041000403420347C341C342034403420341C34A8
:100420003C344034303440343C3444342834103488
:10043000283444344C349034903490347C344434F4
:10044000643454344C344434003408343634413445
:100450000034003400347734003400340034413444
:1004600036340834003402340134023404340234A3
:1004700006308100F108031D452AF208031D452AB4
:100480008316091083120914502A7B087102031D78
:10049000502AF208031D502A8316091083120910EE
:1004A0007208013C031C5E2A031D5A2A71088F3C06
:1004B000031C5E2AF10A0319F20A602AF201F10113
:1004C0007408133C031C6E2A031D6A2A7308873CB8
:1004D000031C6E2AF30A0319F40A8A2A750B7A2A76
:1004E0007B08293C031C7A2AFB0A7B082A3C031957
:1004F000F501882AF508031D882A0C30FB00F60A4E
:1005000076081E3C031D882A0130F500F601FC0028
:10051000F401F3018316210B902AFD0A0319FE0A48
:1005200083120B118A110A122B28CD34EE34ED30D0
:100530006C10D230E4307210C4347338EC3079006F
:10054000A831ED140000B0308400831300080319B3
:10055000B62A0630F800F701F70BAC2AF80BAB2AE5
:100560007B30F700F70BB22A800BA92A08009413FE
:100570008C1183163908831293000230941BC72A0A
:1005800083161419C12A0030111B01308312F800A0
:1005900008008316B80111141118CC2A83122C08F4
:1005A0008316B9008312B72283163808B900831264
:1005B000B72283163708B9008312B72283161115A4
:1005C0001119E02A8312080083162E088312AD0049
:1005D00083162F088312AC008316081283120812A8
:1005E000831608120A30B0008312A3228316081261
:1005F00083120816AE308316B7008312C922D53095
:100600008316B7008312C92280308316B700831285
:10061000C922A8308316B7008312C9223F3083163F
:10062000B7008312C922D3308316B7008312C922C0
:100630008316B7018312C92240308316B700831294
:10064000C9228D308316B7008312C92283162E0B60
:100650002F2B1030B7008312C922332B831614308E
:10066000B7008312C92220308316B7008312C92233
:100670008316B7018312C922A1308316B7008312F3
:10068000C922C8308316B7008312C922DA30831614
:10069000B7008312C92212308316B7008312C92211
:1006A00081308316B7008312C92283162E0B5E2B6E
:1006B0009F30B7008312C922622B8316CF30B70058
:1006C0008312C922D9308316B7008312C922831638
:1006D0002E0B702B2230B7008312C922742B831685
:1006E000F130B7008312C922DB308316B7008312C2
:1006F000C92240308316B7008312C922A430831662
:10070000B7008312C922A6308316B7008312C9220C
:100710002E308316B7008312C922AF308316B7007C
:100720008312C9228A110A169728831631080739BD
:10073000F700310CF800F80CF80C1F30F8057808B9
:1007400033078400831334188317F801F80AF70A73
:10075000AA2BF80DF70BA92BB2080319B22B7808B6
:100760008004B52BF80978088005831208008316E9
:10077000AE012E081F3C031C4F2C2E08B100B20105
:10078000B4013030B3008312952383162E08B100D4
:10079000B201B4013430B3008312952383162E08BE
:1007A000B100B201B4013830B3008312952383162F
:1007B0002E08B100B201B4013C30B300831295237E
:1007C00083162E08B100B201B4014030B300831289
:1007D000952383162E08B100B201B4014430B30052
:1007E0008312952383162E08B100B201B40148305C
:1007F000B3008312952383162E08B100B201B40111
:100800004C30B3008312952383162E08B100B20139
:10081000B4015030B3008312952383162E08B10023
:10082000B201B4015430B3008312952383162E080D
:10083000B100B201B4015830B3008312952383167E
:100840002E08B100B201B4015C30B30083129523CD
:1008500083162E08B100B201B4016030B3008312D8
:10086000952383162E08B100B201B4016430B300A1
:100870008312952383162E08B100B201B4016830AB
:10088000B3008312952383162E08B100B201B40180
:100890006C30B300831295238316AE0AB92B213036
:1008A000B7008312C9228316B7018312C9227F3091
:1008B0008316B7008312C92222308316B700831231
:1008C000C9228316B7018312C92207308316B700E5
:1008D0008312C9228316111411186C2C83122C0850
:1008E0008316B9008312B72240308316B9008312F1
:1008F000B7228316B001AF013008033C031C882CDB
:10090000B9018312B7228316AF0A0319B00A7C2CEF
:1009100011151119892C8312080083162E08153C15
:10092000031C952C2F08083C031C9E2C2E088312B8
:10093000AE0083162F088312AF00831683120800BF
:10094000F701F8018316360803103718F707F70C7C
:10095000F80CB718F707F70CF80C3719F707F70C6E
:10096000F80CB719F707F70CF80C371AF707F70C5C
:10097000F80CB71AF707F70CF80C371BF707F70C4A
:10098000F80CB71BF707F70CF80C83120800831656
:100990003508F80134020318D02C3408F700DC2C99
:1009A000F7010830B600B40DF70D350877020318CB
:1009B000F700F80DB60BD32C83120800831631080C
:1009C0001F3C0318E72C31087E3C0318E92C3F300C
:1009D000B1002130B7008312C92201302E028316E4
:1009E000B4000630B6003408B7008312A02478089B
:1009F0008316B400B7008312C92201302E02831679
:100A0000B4000630B6003408B7008312A0240430C6
:100A100078078316B400B7008312C92222308316E8
:100A2000B7008312C92201302F028316B400B70029
:100A30008312C92201302F028316B400B70083123B
:100A4000C922831611141118232D83122C08831622
:100A5000B9008312B72240308316B9008312B7223F
:100A60008316B3013308043C031C622D3108523C49
:100A7000031C4B2D20303102B500B6000530B70005
:100A80008312A02483163308780783124F20F800BE
:100A90008316B2005B2D53303102B500B60005302D
:100AA000B7008312A02483163308780783125521D8
:100AB000F8008316B2003208B9008312B7228316F9
:100AC000B30A322D11151119632D83122E088316C6
:100AD000B4001530B5008312C72401307707AE008B
:100AE000701C782D2E0B782D2F080739013EAF0092
:100AF00008000B088316AE0083128B1383160317AE
:100B00008C170C14000000000313AE1F8A2D8312F3
:100B10008B178316831203170C087F390319EB2DEB
:100B200083160313AE00831203170D0883160313F5
:100B3000AF00831203170F0883160313B0002E08AB
:100B4000B1008312DE2483162F08831203178D0051
:100B5000831603133008831203178F0003130B0847
:100B60008316B10083128B13831603178C170C1492
:100B7000000000000313B11FC02D83128B178316D2
:100B8000831203170C0D0E0D7F390319EB2D8316FD
:100B90000313AE00831203170D0883160313AF006F
:100BA000831203170F0883160313B0002E08B10039
:100BB0008312DE2483162F08831203178D008316F9
:100BC00003133008831203178F008D0A03198F0A4D
:100BD0000313792D03170313080010308316B20096
:100BE000F701FA01AF0CAE0C031CFC2D3008F7071F
:100BF0000318FA0A3108FA07FA0CF70CF90CF80C8A
:100C0000B20BF22D83128A110A16F628F801F901A7
:100C1000F701FA0183163308031D112E3208031958
:100C20002B2E1030B4000310B00DB10DF70DFA0DDE
:100C300033087A02031D1E2E32087702031C272E6A
:100C40003208F702031CFA033308FA020314F80D02
:100C5000F90DB40B132E83128A110A1606298E3051
:100C6000F70083162F08F8002E08F900FA01AF1FCD
:100C70003E2EF809F909F90A0319F80AF808031DC4
:100C80004B2E7908F800F9010830F702F808031D27
:100C90004B2EF701542E0310F81B522EF90DF80DB0
:100CA000F7034B2EAF1FF81383128A110A1635294A
:100CB000831664080319092F831203179000831603
:100CC000031368080319092F8312031790070318E9
:100CD000762E7F3090020318702E83160313092F8F
:100CE000031D752E83160313092F7D2E8130900767
:100CF000031C7D2E83160313092F1008F700F8013B
:100D0000F901FA018316031365088312031794008F
:100D10009417831603136608831203179300831630
:100D20000313670883120317920018309000910193
:100D3000121CC52E831603136B08FA07031CAB2E77
:100D4000F90A031DAB2EF80A031DAB2E83120317FD
:100D50009117831603136A08F907031CB72EF80AC4
:100D6000031DB72E83120317911783160313690807
:100D7000E600E6176608F807031CC32E8312031764
:100D800091178316031383120317910DF80CF90CB6
:100D9000FA0C940C930C920C0310900B972E0130CC
:100DA000F707031CD62E83160313092FF81BE12E19
:100DB000940DFA0DF90DF80DF70BE12E83160313C0
:100DC000092F941FF52EFA0A031DF52EF90A031DAB
:100DD000F52EF80A031DF52EF80CF90CFA0CF70A9B
:100DE000031DF52E83160313092F831603136508BD
:100DF00083120317910083160313690883120317E4
:100E00009106911F052FF8170F2FF8130F2F831638
:100E10000313F701F801F901FA0183120317031311
:100E200008008E30F70083166008F7026108F900A9
:100E30006208F800F917F7080319292F0310F908B9
:100E4000031D252FF8080319292FF90CF80CF70BAF
:100E50001E2FE11F302FF809F909F80A0319F90AC2
:100E6000831208008E30F70083166508F8006408C6
:100E7000F900FA01F808031D472F7908F800F90175
:100E80000830F702F808031D472FF7014F2F031012
:100E9000F81B4E2FF90DF80DF703472FF8138312A7
:100EA0000800831483163108E7003008E6002F0895
:100EB000E5002E08E400DB30EB000F30EA0049309B
:100EC000E9007F30E8008A15831200208A117A0831
:100ED0008316B5007908B4007808B3007708B2002B
:100EE0003508B9003408B8003308B7003208B60036
:100EF0008A158312B1218A118A110A165F2978088E
:100F000083162E08B4006430B5008312C724770816
:100F10008316AE0078083030031D952FAF1C9E2F2E
:100F2000AF199E2F2F1A2030982FAF112F122F1488
:100F3000F8077808B1008312DE2483162E08B40067
:100F40000A30B5008312C72477088316AE007808EC
:100F50003030031DB12FAF19B72F2F1CB72F2F1A09
:100F60002030F8077808B1008312DE248316303071
:100F7000AE072E08B1008312DE248A110A162B2A2E
:100F8000831636080739F700360CF800F80CF80C11
:100F90001F30F80578083707840083133818831743
:100FA0000008F800F70AD52FF80CF70BD42F013002
:060FB000F80583120800A1
:101000008030831C06288316E90683120317920199
:101010009301831603136508831203179100831647
:1010200003136908831203179106831603136408D8
:1010300003194729831203179000F700831603133F
:10104000680803195C298312031790020319D22838
:1010500003182B28782883160313690883120317B3
:1010600096009617831603136A08831203179500D8
:10107000831603136B088312031794009301031064
:10108000960C950C940C930C900B3E28911F4B28BA
:1010900012147A29121010101216E73084008313EC
:1010A00090291212911B5E28101C6928960C950C31
:1010B000940C930CF70A031975296928961B6C2860
:1010C0000310930D940D950D960DF70303197529D3
:1010D0005E28121702291213831603136508831260
:1010E00003179100911F762896176E2996136E2983
:1010F000831603136808831203179000F700831602
:101100000313640883120317900283160313650800
:10111000831203179600961783160313660883122B
:1011200003179500831603136708831203179400AF
:1011300093010310960C950C940C930C900B98282B
:10114000911FA52892147A29921010109216EB3054
:101150008400831390299212911BB828101CC32875
:10116000960C950C940C930CF70A03197529C32857
:10117000961BC6280310930D940D950D960DF7033D
:1011800003197529B828921702299213831603139D
:101190006908831203179100911FD02896176E29B2
:1011A00096136E298316031369088312031796009A
:1011B0009617831603136A08831203179500831684
:1011C00003136B08831203179400911FEB289613E7
:1011D00012157A29121193011010E730840083133D
:1011E0009029911B1829831603136508831203178E
:1011F0009100101C0229960C950C940C930CF70A84
:1012000003197529931F1329940A031D1329950A9D
:10121000031D1329960A031D1329960C950C940C93
:10122000F70A03197529121B6B28921BC5283F2941
:1012300080309606961F24297A298316031369089D
:10124000831203179100352983160313650883124F
:10125000031791009608031D35299508031D3529AC
:101260009408031D3529F7016E29961B3F290310A9
:10127000930D940D950D960DF70B35297529911F3A
:10128000432996176E2996136E298316031368084F
:10129000F7006908831203179600831603136A0880
:1012A000831203179500831603136B088312031729
:1012B00094006E29831603136408F70065088312EF
:1012C000031796008316031366088312031795000D
:1012D0008316031367088312031794001608F80097
:1012E0001508F9001408FA00AF29F701F801F9010F
:1012F000FA01AF2993019409950996099309930A74
:10130000031D8929940A031D8929950A031D89292A
:10131000960A12184A289218A4281219EA281D2998
:1013200000089407031C9A29950A031D9A29960A16
:1013300003191014840300089507031CA229960AB8
:101340000319101484030008801BA729803A96070C
:1013500003181014121A5128921AAB28F1280313FB
:1013600008008316C501C401C3017F30C2007E306E
:10137000CC008030CD00CE01CF017A30D0002A30B1
:10138000D100AA30D200A330D3007530D400B630DB
:10139000D5000930D600B430D7006F30D8004F30B8
:1013A000D900B630DA00AA30DB006930DC008B30BF
:1013B000DD00F630DE00E830DF003908E3003808F1
:1013C000E2003708E1003608E000E701E601E50148
:1013D000E4016108E8006508E806E81FF429031144
:1013E0000310E11B0314272A6108E8006408E900E0
:1013F0006008E9020319022AE81F272A0308013AB4
:101400008300272A6508E9006108E90203190E2A0A
:10141000E81F272A0308013A8300272A6608E90003
:101420006208E90203191A2AE81F272A0308013A69
:101430008300272A6708E9006308E9020319262ABE
:10144000E81F272A0308013A8300272A0310031CF8
:101450002C2A3708803AB7003908E7003808E60038
:101460003708E5003608E4008330EB00F930EA0085
:101470002230E9007E30E8008A11831258268A154E
:101480007A088316E3007908E2007808E10077081B
:10149000E0008A11831211278A1578088316C60086
:1014A0003908E7003808E6003708E5003608E400A8
:1014B0008330EB00F930EA002230E9007E30E800AA
:1014C0008A11831258268A157A088316E300790850
:1014D000E2007808E1007708E000E5014608E40052
:1014E0008A11831232278A15831483166308E70052
:1014F0006208E6006108E5006008E4007A08EB0095
:101500007908EA007808E9007708E80083120020EB
:101510007A088316CB007908CA007808C9007708D2
:10152000C8000330C605C60803199A2A4608023CBB
:10153000031DB82A4B08E7004A08E6004908E50001
:101540004808E400DB30EB000F30EA004930E900E6
:101550007F30E8008A11831258268A157A0883168C
:10156000C1007908C0007808BF007708BE00272BAB
:10157000460BF12A8314E701E601E5017F30E40020
:101580004B08EB004A08EA004908E9004808E8006F
:10159000831200207A088316E3007908E2007808B5
:1015A000E1007708E0006308E7006208E6006108F0
:1015B000E5006008E400DB30EB000F30EA00493062
:1015C000E9007F30E8008A11831258268A157A08CC
:1015D0008316C1007908C0007808BF007708BE00F4
:1015E000272B83144B08E7004A08E6004908E5006A
:1015F0004808E400EB01EA01E9017F30E8008312CA
:1016000000207A088316E3007908E2007808E100F8
:101610007708E0006308E7006208E6006108E5007B
:101620006008E400DB30EB000F30EA004930E900ED
:101630007F30E8008A11831258268A157A088316AB
:10164000C1007908C0007808BF007708BE00BD015E
:10165000BC01BB017F30BA004108E7004008E6004A
:101660003F08E5003E08E4004108EB004008EA00BE
:101670003F08E9003E08E8008A11831258268A15BF
:101680007A088316C1007908C0007808BF0077087F
:10169000BE00C7014708043C031CBC2B4508E700FB
:1016A0004408E6004308E5004208E4004108EB0076
:1016B0004008EA003F08E9003E08E8008A1183126A
:1016C00058268A157A088316C5007908C400780858
:1016D000C3007708C200470DF700F70DFC30F7058F
:1016E0007708CC3E840083130008E000840A0008D9
:1016F000E100840A0008E200840A0008E300E70031
:101700006208E6006108E5006008E4004508EB00B7
:101710004408EA004308E9004208E8008A118312FD
:1017200058268A158316E1010408E0006110831B26
:10173000611483103D08E7003C08E6003B08E50023
:101740003A08E4007A08EB007908EA007808E90032
:101750007708E80083120020831660088400831352
:10176000611883177A08BD007908BC007808BB00AF
:101770007708BA00C70A4A2B4608023C0319C22B55
:10178000460BC52B3B08803ABB003A08F7003B08E4
:10179000F8003C08F9003D08FA008312080083169F
:1017A00032080319952CBE0036080319952CBE0289
:1017B000031CDF2B7F30BE070318952CE52B8130EF
:1017C000BE02031C952C0319952C3E08F700F80166
:1017D000F901FA01BD013308BC00BC173408BB0095
:1017E0003508BA001930BE003908BA020318082CAF
:1017F0000130BB020318082CBC020318082CBD02E0
:101800000318082CBD0ABC0ABB0A3908BA073A2CCF
:101810003808BB020318232C0130BC020318232C08
:10182000BD020318232CBD0ABC0A3808BB073908BF
:10183000BA07031C3A2CBB0A031D3A2CBC0A031D31
:101840003A2CBD0A3A2C37088038BC020318392CD0
:101850000130BD020318392CBD0A37088038BC0797
:101860003808BB07031C172CBC0A031D172CBD0A24
:10187000172C7A14BE0B3D2C482C0310BA0DBB0D4F
:10188000BC0DBD0D0310FA0DF90DF80DBF0DF42BB5
:101890003F1C502C0310F80CF90CFA0CBF0C532C05
:1018A000F7030319952CBF1B7C2C0310BA0DBB0D3D
:1018B000BC0DBD0D3908BA020318682C0130BB02FB
:1018C0000318682CBC020318682CBD02031C8B2C67
:1018D0003808BB020318732C0130BC020318732CA8
:1018E000BD02031C8B2C37088038BC0203187C2CEB
:1018F0000130BD02031C8B2CFA0A031D8B2CF90A44
:10190000031D8B2CF80A031D8B2CF70A0319952C49
:10191000F80CF90CFA0C3308BE003708BE06BE1FDF
:10192000932CF817992CF813992CF701F801F90169
:10193000FA018312080083162F0BAD2C01302E0202
:10194000B000B1000130B200B4013030B3008A11F0
:10195000831295238A15C82D83162F08023C031D78
:10196000C02C01302E02B000B1000130B200B40131
:101970003430B3008A11831295238A15C82D83163B
:101980002F08033C031DD32C01302E02B000B10000
:101990000130B200B4013830B3008A1183129523AC
:1019A0008A15C82D83162F08043C031DE62C013030
:1019B0002E02B000B1000130B200B4013C30B300DF
:1019C0008A11831295238A15C82D83162F08053C8A
:1019D000031DF92C01302E02B000B1000130B2001D
:1019E000B4014030B3008A11831295238A15C82DA3
:1019F00083162F08063C031D0C2D01302E02B0006B
:101A0000B1000130B200B4014430B3008A11831236
:101A100095238A15C82D83162F08073C031D1F2DFB
:101A200001302E02B000B1000130B200B4014830E4
:101A3000B3008A11831295238A15C82D83162F08A7
:101A4000083C031D322D01302E02B000B1000130E0
:101A5000B200B4014C30B3008A11831295238A1569
:101A6000C82D83162F08093C031D452D01302E0279
:101A7000B000B1000130B200B4015030B3008A119F
:101A8000831295238A15C82D83162F080A3C031D3F
:101A9000582D01302E02B000B1000130B200B40167
:101AA0005430B3008A11831295238A15C82D8316EA
:101AB0002F080B3C031D6B2D01302E02B000B1002E
:101AC0000130B200B4015830B3008A11831295235B
:101AD0008A15C82D83162F080C3C031D7E2D01305E
:101AE0002E02B000B1000130B200B4015C30B3008E
:101AF0008A11831295238A15C82D83162F080D3C51
:101B0000031D912D01302E02B000B1000130B20052
:101B1000B4016030B3008A11831295238A15C82D51
:101B200083162F080E3C031DA42D01302E02B00099
:101B3000B1000130B200B4016430B3008A118312E5
:101B400095238A15C82D83162F080F3C031DB72D2A
:101B500001302E02B000B1000130B200B401683093
:101B6000B3008A11831295238A15C82D83162F0876
:101B7000103C031DC92D01302E02B000B100013010
:101B8000B200B4016C30B3008A11831295238A1518
:101B9000831683128A110A16472A83162E10AE1056
:101BA000AF01B0013008073C031C692F3008023C2C
:101BB000031CDD2D0630AF00DF2D0130AF002F08F4
:101BC000B10031081F3C031C672F2130B7008A1178
:101BD0008312C9228A158316310DB600B60DFC306A
:101BE000B6053608B7008A118312C9228A158316F2
:101BF000310DF700F70DFC30F7057708033EB6000E
:101C0000B7008A118312C9228A1522308316B700C1
:101C10008A118312C9228A1583163008B7008A11E7
:101C20008312C9228A1583163008B7008A118312DD
:101C3000C9228A158316111411181C2E83122C0820
:101C40008316B9008A118312B7228A154030831691
:101C5000B9008A118312B7228A158316B008031DB2
:101C60004C2E3108B600B8013030B7008A1183120B
:101C7000C0278A1583162E1078182E143108B60046
:101C8000B8013430B7008A118312C0278A15831631
:101C9000AE107818AE14222F300B692E3108B60022
:101CA000B8013830B7008A118312C0278A1583160D
:101CB0002E1078182E143108B600B8013C30B70049
:101CC0008A118312C0278A158316AE107818AE14B5
:101CD000222F3008023C031D882E3108B600B801BF
:101CE0004030B7008A118312C0278A1583162E1040
:101CF00078182E143108B600B8014430B7008A11A4
:101D00008312C0278A158316AE107818AE14222FBE
:101D10003008033C031DA72E3108B600B801483037
:101D2000B7008A118312C0278A1583162E107818DF
:101D30002E143108B600B8014C30B7008A11831256
:101D4000C0278A158316AE107818AE14222F3008DB
:101D5000043C031DC62E3108B600B8015030B70050
:101D60008A118312C0278A1583162E1078182E1414
:101D70003108B600B8015430B7008A118312C02769
:101D80008A158316AE107818AE14222F3008053C41
:101D9000031DE52E3108B600B8015830B7008A118E
:101DA0008312C0278A1583162E1078182E14310836
:101DB000B600B8015C30B7008A118312C0278A15BB
:101DC0008316AE107818AE14222F3008063C031D7F
:101DD000042F3108B600B8016030B7008A118312B1
:101DE000C0278A1583162E1078182E143108B600D5
:101DF000B8016430B7008A118312C0278A15831690
:101E0000AE107818AE14222F3008073C031D222F85
:101E10003108B600B8016830B7008A118312C027B4
:101E20008A1583162E1078182E143108B600B801C2
:101E30006C30B7008A118312C0278A158316AE1042
:101E40007818AE142E1C442FAE1C352FB201320868
:101E5000033C031C342FFF30B9008A118312B722D0
:101E60008A158316B20A272F432FB3013308033C88
:101E7000031C432F0F30B9008A118312B7228A1531
:101E80008316B30A362F622FAE1C552FB4013408C7
:101E9000033C031C542FF030B9008A118312B7227F
:101EA0008A158316B40A472F622FB5013508033C03
:101EB000031C622FB9018A118312B7228A15831677
:101EC000B50A562F11151119632FB10AE12DB00A69
:0A1ED000D22D83128A110A16552A3A
:1020000003081F398300FF30AB00AB152B08831684
:10201000870083122B162B08831687000C30930041
:102020002830831294008316941314130130831202
:10203000AE00AF007014F201F101F401F301F501FB
:10204000F6010C30FB00FC01FE01FD018316A0012E
:10205000A101A201A601A501A401A301A701A80154
:10206000A901AA01AB01AD01AC011F149F141F15FA
:102070009F1107309C0083138312B001B101B2019C
:10208000B301B401B501B601B701B801B901BA0194
:10209000BB01BC01BD01BE01BF01C001C101C20144
:1020A000C301C401C501C601C701C801C901CA01F4
:1020B000CB01CC01CD01CE01CF01D001D101D201A4
:1020C000D301D401D501D601D701D801D901DA0154
:1020D000DB01DC01DD01DE01DF01E001E101E20104
:1020E000E301E401E501E601E701E801E901EA01B4
:1020F000EB01EC01ED01EE01EF01023083168500EA
:1021000083128B16C0308B0402308316AE00FA3077
:10211000B0000A128312A3220A168316AE0B872878
:102120000230AE007A30AF000A128312E42A0A1697
:102130000A12B7230A1601308316AE00AF000A1246
:1021400083128D240A16953003178D0002308F00FC
:102150000A12031379250A1614308316AE00FA30DA
:10216000B0000A128312A3220A168316AE0BAF2800
:1021700006308312810083160108C73908388100B0
:102180000A128312B7230A167C0BCA280A12B72335
:102190000A16FC01750B4E2A8316051083120514CE
:1021A0001030F700F70BD2280000831605108312B9
:1021B0000510831685148312851CD928FE01FD01A4
:1021C0008316A0010130A10085148312851CEA2822
:1021D0008316E4288316A1017E08AF007D08AE00B7
:1021E000B1013230B0000A128312ED2D0A167908BF
:1021F0008316AF007808AE002F08B1002E08B0009B
:10220000B3013A30B2000A128312062E0A16780879
:102210008316A00020081E3C031C4B2A1B307B02A7
:10222000AF00B6000630B7000A128312A0240A16C7
:1022300078088316A200A21B1E292B292208B600AB
:10224000FF30B7000A128312A0240A1678088316FA
:10225000A200AB012D290130AB00AF012208AE0076
:10226000AE1BAF030A1283122F2E0A1635308316C7
:10227000E700FA30E6000E30E5007930E4007A0835
:10228000EB007908EA007808E9007708E8000A120C
:10229000831258260A167A088316A6007908A50024
:1022A0007808A4007708A3002608B1002508B0002C
:1022B0002408AF002308AE000A128312512F0A1619
:1022C0007A088316B1007908B0007808AF00770863
:1022D000AE00E5012008E4000A12831232270A1634
:1022E00083163108E7003008E6002F08E5002E08C5
:1022F000E4007A08EB007908EA007808E90077083A
:10230000E8000A12831258260A167A088316B100CA
:102310007908B0007808AF007708AE003108B50042
:102320003008B4002F08B3002E08B200B901B8017C
:10233000B7018030B6000A128A158312CF230A161D
:102340008A117A088316E3007908E2007808E10030
:102350007708E0000A12831211270A1678088316FC
:10236000A7002608B9002508B8002408B7002308EC
:10237000B6000A128A158312B1210A168A117A0848
:102380008316B1007908B0007808AF007708AE0076
:10239000E5012008E4000A12831232270A16831688
:1023A0003108E7003008E6002F08E5002E08E400B9
:1023B0007A08EB007908EA007808E9007708E80075
:1023C0000A12831258260A167A088316B100790871
:1023D000B0007808AF007708AE003108B5003008CB
:1023E000B4002F08B3002E08B200B901B801B7013C
:1023F0008030B6000A128A158312CF230A168A117A
:102400007A088316E3007908E2007808E10077088B
:10241000E0000A12831211270A1678088316A80012
:102420002B0B162A2708113CA900192A113027075F
:10243000A9002808103CAA000130AE00AF000A1223
:1024400083128D240A1683162008AE000130AF00D7
:102450000A1283127F2F0A1601308316AE00023053
:10246000AF000A1283128D240A16A03003178D00C4
:1024700002308F000A12031379250A1683162908E1
:10248000AE002A08AF000A128A1583129B2C0A1686
:102490008A114D2A8316A0018312522A8316051031
:1024A000831205100A128A15CD2D0A168A11C42826
:0224B0006300C7
:02400E00723FFF
:00000001FF
;PIC16F877A
;CRC=14E5  CREATED="29-11-21 17:08"
