:100000000A308A00D32A0000FF00030E8301A100FA
:100010000A08A0008A010408A2007708A300780853
:10002000A4007908A5007A08A60003170D08031399
:10003000A70003170F080313A80003170C080313E6
:10004000A90003170E080313AA00831383128B1E43
:100050002B280B194C28220884002308F7002408B9
:10006000F8002508F9002608FA00270803178D0074
:100070000313280803178F000313290803178C00A4
:1000800003132A0803178E00031320088A00210E89
:100090008300FF0E7F0E09008A110A12382A0A1007
:1000A0008A100A11563E03188A0A8200003400346E
:1000B000003400340034003400345F340034003441
:1000C0000034073400340734003414347F341434DB
:1000D0007F34143424342A347F342A3412342334C1
:1000E000133408346434623436344934563420349A
:1000F00050340034083407340334003400341C34E2
:100100002234413400340034413422341C3400346D
:100110002A341C347F341C342A34083408343E34E6
:1001200008340834003480347034303400340834F7
:10013000083408340834083400340034603460343F
:100140000034203410340834043402343E34513442
:10015000493445343E34003442347F344034003432
:1001600072344934493449344634213441344934B1
:100170004D3433341834143412347F34103427346B
:1001800045344534453439343C344A3449344934AF
:10019000313441342134113409340734363449348C
:1001A00049344934363446344934493429341E34C8
:1001B0000034003414340034003400344034343417
:1001C00000340034003408341434223441341434FC
:1001D00014341434143414340034413422341434B8
:1001E0000834023401345934093406343E3441347D
:1001F0005D3459344E347C341234113412347C342E
:100200007F3449344934493436343E3441344134FE
:10021000413422347F344134413441343E347F34DC
:1002200049344934493441347F3409340934093478
:1002300001343E3441344134513473347F34083412
:10024000083408347F34003441347F34413400347E
:100250002034403441343F3401347F340834143482
:10026000223441347F3440344034403440347F348D
:1002700002341C3402347F347F34043408341034A4
:100280007F343E344134413441343E347F34093488
:100290000934093406343E344134513421345E3457
:1002A0007F3409341934293446340A148A100A1167
:1002B0005C3E03188A0A82002634493449344934A2
:1002C0003234033401347F34013403343F34403456
:1002D000403440343F341F342034403420341F3401
:1002E0003F344034383440343F34633414340834B9
:1002F0001434633403340434783404340334613400
:10030000593449344D34433400347F34413441341A
:10031000413402340434083410342034003441347D
:10032000413441347F34043402340134023404341F
:1003300040344034403440344034003403340734D3
:1003400008340034203454345434783440347F3406
:100350002834443444343834383444344434443411
:10036000283438344434443428347F3438345434D2
:10037000543454341834003408347E34093402348C
:100380001834A434A4349C3478347F3408340434CE
:1003900004347834003444347D3440340034203420
:1003A000403440343D3400347F34103428344434F5
:1003B0000034003441347F34403400347C3404341D
:1003C0007834043478347C34083404340434783495
:1003D00038344434443444343834FC341834243409
:1003E000243418341834243424341834FC347C3441
:1003F0000834043404340834483454345434543401
:100400002434043404343F34443424343C344034FD
:10041000403420347C341C342034403420341C34A8
:100420003C344034303440343C3444342834103488
:10043000283444344C349034903490347C344434F4
:10044000643454344C344434003408343634413445
:100450000034003400347734003400340034413444
:1004600036340834003402340134023404340234A3
:1004700006308100B108031D452AB208031D452A34
:100480008316091083120914502A36083102031DFD
:10049000502AB208031D502A83160910831209102E
:1004A0003208013C031C5E2A031D5A2A31088F3C86
:1004B000031C5E2AB10A0319B20A602AB201B10113
:1004C0003408133C031C6E2A031D6A2A3308873C38
:1004D000031C6E2AB30A0319B40A8A2A350B762A3A
:1004E0003608293C031C762AB60A882AB508031D5B
:1004F0007F2A36080C3C03187F2AB603882AB508E1
:10050000031D852A0130B500862AB5010130B700E8
:10051000B401B3013B0B8F2AB80A0319B90A0B11B6
:100520008A110A122B28CD34EE34ED306C10D23003
:10053000E4307210C4347338EC307900A831ED1413
:1005400000016F004A308400831300080319B52AA4
:100550000630F800F701F70BAB2AF80BAA2A7B301C
:10056000F700F70BB12A800BA82A080094138C110E
:10057000510893000230941BC42A83161419BE2A12
:100580000030111B01308312F8000800D0018316DF
:1005900011141118C92A83122C08D100B622500850
:1005A000D100B6224F08D100B622831611151119B9
:1005B000D72A831208004808AD004908AC0083160A
:1005C000081283120812831608120A308312CA0016
:1005D000A2228316081283120816AE30CF00C6225C
:1005E000D530CF00C6228030CF00C622A830CF0041
:1005F000C6223F30CF00C622D330CF00C622CF0163
:10060000C6224030CF00C6228D30CF00C622480B14
:100610000D2B1030CF00C622102B1430CF00C62275
:100620002030CF00C622CF01C622A130CF00C62283
:10063000C830CF00C622DA30CF00C6221230CF0039
:10064000C6228130CF00C622480B2A2B9F30CF0014
:10065000C6222D2BCF30CF00C622D930CF00C622E4
:10066000480B362B2230CF00C622392BF130CF0079
:10067000C622DB30CF00C6224030CF00C622A430D5
:10068000CF00C622A630CF00C6222E30CF00C62211
:10069000AF30CF00C6228A150A12232B2130CF009B
:1006A000C622CF01C6227F30CF00C6222230CF0023
:1006B000C622CF01C6220730CF00C62283161114EE
:1006C0001118602B83122C08D100B6224030D100C3
:1006D000B622C901C8014908033C031C752BD1018E
:1006E000B622C80A0319C90A6B2B831611151119F2
:1006F000772B831208004808153C031C822B4908FD
:10070000083C031C872B4808AE004908AF000800CE
:10071000F701F801500803105118F707F70CF80C0F
:10072000D118F707F70CF80C5119F707F70CF80C6C
:10073000D119F707F70CF80C511AF707F70CF80C5A
:10074000D11AF707F70CF80C511BF707F70CF80C48
:10075000D11BF707F70CF80C08004F08F8014E0200
:100760000318B52B4E08F700C12BF7010830D00055
:10077000CE0DF70D4F0877020318F700F80DD00BD8
:10078000B82B08004B081F3C0318CA2B4B087E3CB3
:100790000318CC2B3F30CB002130CF00C6220130D4
:1007A0002E02CE000630D0004E08D10088237808F3
:1007B000CE00CF00C62201302E02CE000630D0007F
:1007C0004E08D100882304307807CE00CF00C6221F
:1007D0002230CF00C62201302F02CE00CF00C62229
:1007E00001302F02CE00CF00C6228316111411183B
:1007F000F72B83122C08D100B6224030D100B6224C
:10080000CD014D08043C031C272C4B08523C031C13
:10081000162C20304B02CF00D0000530D1008823A9
:100820004D0878074F20F800CC00222C53304B02A3
:10083000CF00D0000530D10088234D08780755211E
:10084000F800CC004C08D100B622CD0A012C83164A
:1008500011151119292C83122E08CE001530CF0046
:10086000AD2301307707AE00301C3C2C2E0B3C2C06
:100870002F080739013EAF0008000B08C8008B1392
:10088000831603178C170C14000000008312031347
:10089000C81B8B1703170C087F390319912C0313FE
:1008A000C80003170D080313C90003170F0803132B
:1008B000CA004808CB00C223490803178D00031360
:1008C0004A0803178F0003130B08CB008B13831602
:1008D00003178C170C140000000083120313CB1BAA
:1008E0008B1703170C0D0E0D7F390319912C031371
:1008F000C80003170D080313C90003170F080313DB
:10090000CA004808CB00C223490803178D0003130F
:100910004A0803178F008D0A03198F0A03133D2C11
:100920000317031308001030CC00F701FA01C90CBB
:10093000C80C031CA12C4A08F7070318FA0A4B0835
:10094000FA07FA0CF70CF90CF80CCC0B972C8A155B
:100950000A12762BF801F901F701FA014D08031D7F
:10096000B42C4C080319CE2C1030CE000310CA0D45
:10097000CB0DF70DFA0D4D087A02031DC12C4C0862
:100980007702031CCA2C4C08F702031CFA034D081B
:10099000FA020314F80DF90DCE0BB62C8A150A12C3
:1009A000842B8E30F7004908F8004808F900FA0156
:1009B000C91FDF2CF809F909F90A0319F80AF80820
:1009C000031DEC2C7908F800F9010830F702F8084B
:1009D000031DEC2CF701F52C0310F81BF32CF90D7B
:1009E000F80DF703EC2CC91FF8138A150A12B02B67
:1009F000831638080319692DC0003C080319692DB6
:100A0000C00703180A2D7F30C002031C692D03198B
:100A1000692D0E2D8130C0070318692D4008F7009D
:100A2000F801F901FA013908C400C4173A08C300F3
:100A30003B08C2001830C000C101421C372D3F08DE
:100A4000FA07031C292DF90A031D292DF80A031999
:100A5000C1173E08F907031C302DF80A0319C11706
:100A60003D08BA00BA173A08F8070318C117C10DB4
:100A7000F80CF90CFA0CC40CC30CC20C0310C00B1C
:100A80001C2D0130F7070318692DF81B4E2DC40DDE
:100A9000FA0DF90DF80DF7030319692DC41F5F2D29
:100AA000FA0A031D5F2DF90A031D5F2DF80A031DC5
:100AB0005F2DF80CF90CFA0CF70A0319692D3908A7
:100AC000C1003D08C106C11F672DF8176D2DF81331
:100AD0006D2DF701F801F901FA0183120800803049
:100AE000831C752D8316BD0683128316C201C301B4
:100AF0003908C1003D08C10638080319632EC0003B
:100B0000F7003C0803196C2EC0020319082E031CC1
:100B1000C62D3D08C600C6173E08C5003F08C400E4
:100B2000C3010310C60CC50CC40CC30CC00B902D24
:100B3000C11F9D2D4214802E421040104216BB3022
:100B400084008313952E4212C11BB02D401CBB2D77
:100B5000C60CC50CC40CC30CF70A03197B2EBB2DA5
:100B6000C61BBE2D0310C30DC40DC50DC60DF70366
:100B700003197B2EB02D4217282E42133908C100CD
:100B8000C11FC42DC617742EC613742E3C08C00096
:100B9000F7003808C0023908C600C6173A08C50071
:100BA0003B08C400C3010310C60CC50CC40CC30C25
:100BB000C00BD22DC11FDF2DC214802EC2104010D9
:100BC000C216BF3084008313952EC212C11BF22DB2
:100BD000401CFD2DC60CC50CC40CC30CF70A031930
:100BE0007B2EFD2DC61B002E0310C30DC40DC50D9D
:100BF000C60DF70303197B2EF22DC217282EC21340
:100C00003D08C100C11F062EC617742EC613742ED0
:100C10003D08C600C6173E08C5003F08C400C11FF6
:100C2000152EC6134215802E4211C3014010BB3051
:100C300084008313952EC11B3E2E3908C100401C31
:100C4000282EC60CC50CC40CC30CF70A03197B2E46
:100C5000C31F392EC40A031D392EC50A031D392EA0
:100C6000C60A031D392EC60CC50CC40CF70A03199D
:100C70007B2E421BBD2DC21BFF2D5D2E8030C60674
:100C8000C61F462E802E3D08C100532E3908C100D4
:100C9000C608031D532EC508031D532EC408031D8B
:100CA000532EF701742EC61B5D2E0310C30DC40D09
:100CB000C50DC60DF70B532E7B2EC11F612EC61717
:100CC000742EC613742E3C08F7003D08C6003E087B
:100CD000C5003F08C400742E3808F7003908C60064
:100CE0003A08C5003B08C4004608F8004508F9006A
:100CF0004408FA00B32EF701F801F901FA01B32E06
:100D0000C301C409C509C609C309C30A031D8E2E40
:100D1000C40A031D8E2EC50A0319C60A42189C2D4B
:100D2000C218DE2D4219142E432E0008C407031CDE
:100D30009F2EC50A031D9F2EC60A03194014840363
:100D40000008C507031CA72EC60A03194014840314
:100D50000008801F803AC60703184014421AA32DCA
:100D6000C21AE52D1B2E831208008E30F700831661
:100D70003408F7023508F9003608F800F917F708C3
:100D80000319CD2E0310F908031DC92EF808031905
:100D9000CD2EF90CF80CF70BC22EB51FD42EF80986
:100DA000F909F80A0319F90A831208008E30F700CE
:100DB00083163908F8003808F900FA01F808031D0D
:100DC000EB2E7908F800F9010830F702F808031D46
:100DD000EB2EF701F32E0310F81BF22EF90DF80D90
:100DE000F703EB2EF8138312080083144B088316C5
:100DF000BB0083124A088316BA008312490883167F
:100E0000B900831248088316B800DB30BF000F30EA
:100E1000BE004930BD007F30BC0083126F257A08C8
:100E2000CF007908CE007808CD007708CC004F08B5
:100E3000D3004E08D2004D08D1004C08D0008A15CE
:100E400000208A118A150A12D82B4C080319EA2FA0
:100E5000D80050080319EA2FD802031C342F7F3022
:100E6000D8070318EA2F3A2F8130D802031CEA2F43
:100E70000319EA2F5808F700F801F901FA01D70120
:100E80004D08D600D6174E08D5004F08D4001930AB
:100E9000D8005308D40203185D2F0130D50203187F
:100EA0005D2FD60203185D2FD70203185D2FD70AD6
:100EB000D60AD50A5308D4078F2F5208D502031833
:100EC000782F0130D6020318782FD7020318782F15
:100ED000D70AD60A5208D5075308D407031C8F2F08
:100EE000D50A031D8F2FD60A031D8F2FD70A8F2FE8
:100EF00051088038D60203188E2F0130D70203180C
:100F00008E2FD70A51088038D6075208D507031C00
:100F10006C2FD60A031D6C2FD70A6C2F7A14D80BAE
:100F2000922F9D2F0310D40DD50DD60DD70D031084
:100F3000FA0DF90DF80DD90D492F591CA52F0310E5
:100F4000F80CF90CFA0CD90CA82FF7030319EA2FA7
:100F5000D91BD12F0310D40DD50DD60DD70D5308A5
:100F6000D4020318BD2F0130D5020318BD2FD602BD
:100F70000318BD2FD702031CE02F5208D502031817
:100F8000C82F0130D6020318C82FD702031CE02F48
:100F900051088038D6020318D12F0130D702031C24
:100FA000E02FFA0A031DE02FF90A031DE02FF80ACB
:100FB000031DE02FF70A0319EA2FF80CF90CFA0CBD
:100FC0004D08D8005108D806D81FE82FF817EE2F83
:0E0FD000F813EE2FF701F801F901FA010800FD
:10100000DF01DE01DD017F30DC007E308316A000D1
:101010008030A100A201A3017A30A4002A30A500EB
:10102000AA30A600A330A7007530A800B630A900EA
:101030000930AA00B430AB006F30AC004F30AD00C7
:10104000B630AE00AA30AF006930B0008B30B100CE
:10105000F630B200E830B300831253088316B700AD
:10106000831252088316B600831251088316B50006
:10107000831250088316B400BB01BA01B901B8014C
:101080003508BC003908BC06BC1F4B2803110310EF
:10109000B51B03147E283508BC003808BD00340891
:1010A000BD0203195928BC1F7E280308013A83009A
:1010B0007E283908BD003508BD0203196528BC1F0C
:1010C0007E280308013A83007E283A08BD003608CE
:1010D000BD0203197128BC1F7E280308013A830052
:1010E0007E283B08BD003708BD0203197D28BC1FC0
:1010F0007E280308013A83007E280310031C8528FC
:1011000083125108803AD100831683125308831644
:10111000BB00831252088316BA008312510883164B
:10112000B900831250088316B8008330BF00F9302D
:10113000BE002230BD007E30BC008A118312F8242C
:101140008A157A088316B7007908B6007808B500C2
:101150007708B4008A118312B5268A157808E00052
:1011600053088316BB00831252088316BA008312F9
:1011700051088316B900831250088316B8008330D3
:10118000BF00F930BE002230BD007E30BC008A11A5
:101190008312F8248A157A08E9007908E8007808AB
:1011A000E7007708E6008316B9018312600883160A
:1011B000B8008A118312D6268A158314690883160B
:1011C000BB00831268088316BA008312670883166F
:1011D000B900831266088316B8007A08BF00790840
:1011E000BE007808BD007708BC008A1183126F2505
:1011F0008A157A08E5007908E4007808E3007708A2
:10120000E2000330E005E00803190A296008023C07
:10121000031D2E2965088316BB00831264088316FC
:10122000BA00831263088316B9008312620883161A
:10123000B800DB30BF000F30BE004930BD007F304A
:10124000BC008A118312F8248A157A08DB00790819
:10125000DA007808D9007708D800BB29600B772915
:1012600083148316BB01BA01B9017F30B800831221
:1012700065088316BF00831264088316BE008312BC
:1012800063088316BD00831262088316BC008A11AE
:1012900083126F258A157A08E9007908E800780832
:1012A000E7007708E60069088316BB008312680828
:1012B0008316BA00831267088316B9008312660882
:1012C0008316B800DB30BF000F30BE004930BD00D0
:1012D0007F30BC008A118312F8248A157A08DB005B
:1012E0007908DA007808D9007708D800BB29831478
:1012F00065088316BB00831264088316BA00831244
:1013000063088316B900831262088316B800BF0110
:10131000BE01BD017F30BC008A1183126F258A1582
:101320007A08E9007908E8007808E7007708E6001D
:1013300069088316BB00831268088316BA008312FB
:1013400067088316B900831266088316B800DB307D
:10135000BF000F30BE004930BD007F30BC008A1195
:101360008312F8248A157A08DB007908DA007808F5
:10137000D9007708D800D701D601D5017F30D40035
:101380005B088316BB0083125A088316BA008312C7
:1013900059088316B900831258088316B8008312BF
:1013A0005B088316BF0083125A088316BE0083129F
:1013B00059088316BD00831258088316BC008A1191
:1013C0008312F8248A157A08DB007908DA00780895
:1013D000D9007708D800E1016108043C031C822A87
:1013E0005F088316BB0083125E088316BA0083125F
:1013F0005D088316B90083125C088316B800831257
:101400005B088316BF0083125A088316BE0083123E
:1014100059088316BD00831258088316BC008A1130
:101420008312F8248A157A08DF007908DE0078082C
:10143000DD007708DC00610DF700F70DFC30F705E3
:101440007708A03E840083130008E600840A0008A1
:10145000E700840A0008E800840A0008E90083160F
:10146000BB00831268088316BA00831267088316CC
:10147000B900831266088316B80083125F088316CA
:10148000BF0083125E088316BE0083125D088316B8
:10149000BD0083125C088316BC008A118312F824F5
:1014A0008A15E7010408E6006710831B67148310A0
:1014B00057088316BB00831256088316BA0083129E
:1014C00055088316B900831254088316B8007A08A9
:1014D000BF007908BE007808BD007708BC008A11FB
:1014E00083126F258A156608840083136718831793
:1014F0007A08D7007908D6007808D5007708D40094
:10150000E10AEC296008023C0319882A600B8B2A47
:101510005508803AD5005408F7005508F8005608D9
:10152000F9005708FA00080078084808CE0064302F
:10153000CF008A11AD238A157708C80078083030AB
:10154000031DA92AC91CB22AC919B22A491A203076
:10155000AC2AC91149124914F8077808CB008A113E
:10156000C2238A154808CE000A30CF008A11AD2365
:101570008A157708C80078083030031DC52AC919B4
:10158000CB2A491CCB2A491A2030F8077808CB000F
:101590008A11C2238A153030C8074808CB008A1147
:1015A000C2238A15080003081F398300FF30AB00EF
:1015B000AB152B088316870083122B162B08831676
:1015C00087000C3093002830831294008316941304
:1015D000141301308312AE00AF003014B201B10118
:1015E000B401B301B5001B30B600B701B901B801B1
:1015F000BA01BB01BC01C001BF01BE01BD01C101F7
:10160000C201C301C401C501C701C60183161F146D
:101610009F141F159F1107309C0083130230850013
:1016200083128B16C0308B040230C800FA30CA0017
:101630008A11A2228A15C80B162B0230C8007A30F4
:10164000C9008A11DB2A8A158A114E238A150130B6
:10165000C800C9008A117B238A15933003178D00B7
:1016600002308F008A1103133D248A151430C800FC
:10167000FA30CA008A11A2228A15C80B382B06300C
:10168000810083160108C739083881008A11831246
:101690004E238A15370B502B8A114E238A15B7011A
:1016A00083160510831205141030F700F70B562B24
:1016B000000083160510831205108316851483120B
:1016C000851C5D2BB901B801BA010130BB0083163E
:1016D000851483128518672BBB013908C9003808A7
:1016E000C800CB013230CA008A11932C8A157908C0
:1016F000C9007808C8007908CB007808CA00CD0175
:101700003A30CC008A11AA2C8A157808BA003A0817
:10171000173C031CEE2C3A08033C0318EE2C1B303C
:101720003602C900D0000630D1008A1188238A15FC
:101730007808BC00BC1FA72B3C08D000FF30D100AC
:101740008A1188238A157808BC00C501A92B0130AD
:10175000C500C9013C08C800C81BC9038A11D12CA7
:101760008A1535308316BB00FA30BA000E30B90046
:101770007930B8007A08BF007908BE007808BD004B
:101780007708BC008A118312F8248A157A08C000F1
:101790007908BF007808BE007708BD004008CB007C
:1017A0003F08CA003E08C9003D08C8008A11F52E4E
:1017B0008A157A08CB007908CA007808C90077082A
:1017C000C8008316B90183123A088316B8008A113B
:1017D0008312D6268A154B088316BB0083124A084B
:1017E0008316BA00831249088316B9008312480889
:1017F0008316B8007A08BF007908BE007808BD00DB
:101800007708BC008A118312F8248A157A08CB0065
:101810007908CA007808C9007708C8007A08CF009C
:101820007908CE007808CD007708CC00D301D2012A
:101830004030D1008030D0008A1125278A157A08DF
:101840008316B7007908B6007808B5007708B400A9
:101850008A118312B5268A157808C1004008D30082
:101860003F08D2003E08D1003D08D00000207A0891
:10187000CB007908CA007808C9007708C800831629
:10188000B90183123A088316B8008A118312D6264A
:101890008A154B088316BB0083124A088316BA00C8
:1018A000831249088316B900831248088316B800CA
:1018B0007A08BF007908BE007808BD007708BC0030
:1018C0008A118312F8248A157A08CB007908CA0095
:1018D0007808C9007708C8007A08CF007908CE00D8
:1018E0007808CD007708CC00D301D2014030D10078
:1018F0008030D0008A1125278A157A088316B70010
:101900007908B6007808B5007708B4008A11831208
:10191000B5268A157808C200450B922C41080B3C6D
:10192000C300952C0B304107C3004208083CC4009B
:101930000130C800C9008A117B238A153A08C80003
:101940000130C90094220130C8000230C9008A1158
:101950007B238A159E3003178D0002308F008A1179
:1019600003133D248A154308C8004408C9008A119E
:101970007B238A15A13003178D0002308F008A1156
:1019800003133D248A150A30C8000130C9008A11AA
:101990007B238A154308C8000130C90094222030F7
:1019A000CB008A11C2238A154408C8000130C9003F
:1019B00094222030CB008A11C2238A154108C80026
:1019C0000130C90094222030CB008A11C2238A152D
:1019D0004208C8000130C9009422EF2CBA014A2BFA
:0219E0006300A2
:02400E00723FFF
:00000001FF
;PIC16F877A
;CRC=6490  CREATED="29-11-21 14:03"
