:1000000005308A00022D0000FF00030E8301A100CD
:100010000A08A0008A010408A2007708A300780853
:10002000A4007908A5007A08A60003170D08031399
:10003000A70003170F080313A80003170C080313E6
:10004000A90003170E080313AA00831383128B1E43
:100050002B280B194C28220884002308F7002408B9
:10006000F8002508F9002608FA00270803178D0074
:100070000313280803178F000313290803178C00A4
:1000800003132A0803178E00031320088A00210E89
:100090008300FF0E7F0E09008A110A12382A0A1007
:1000A0008A100A11563E03188A0A8200003400346E
:1000B000003400340034003400345F340034003441
:1000C0000034073400340734003414347F341434DB
:1000D0007F34143424342A347F342A3412342334C1
:1000E000133408346434623436344934563420349A
:1000F00050340034083407340334003400341C34E2
:100100002234413400340034413422341C3400346D
:100110002A341C347F341C342A34083408343E34E6
:1001200008340834003480347034303400340834F7
:10013000083408340834083400340034603460343F
:100140000034203410340834043402343E34513442
:10015000493445343E34003442347F344034003432
:1001600072344934493449344634213441344934B1
:100170004D3433341834143412347F34103427346B
:1001800045344534453439343C344A3449344934AF
:10019000313441342134113409340734363449348C
:1001A00049344934363446344934493429341E34C8
:1001B0000034003414340034003400344034343417
:1001C00000340034003408341434223441341434FC
:1001D00014341434143414340034413422341434B8
:1001E0000834023401345934093406343E3441347D
:1001F0005D3459344E347C341234113412347C342E
:100200007F3449344934493436343E3441344134FE
:10021000413422347F344134413441343E347F34DC
:1002200049344934493441347F3409340934093478
:1002300001343E3441344134513473347F34083412
:10024000083408347F34003441347F34413400347E
:100250002034403441343F3401347F340834143482
:10026000223441347F3440344034403440347F348D
:1002700002341C3402347F347F34043408341034A4
:100280007F343E344134413441343E347F34093488
:100290000934093406343E344134513421345E3457
:1002A0007F3409341934293446340A148A100A1167
:1002B0005C3E03188A0A82002634493449344934A2
:1002C0003234033401347F34013403343F34403456
:1002D000403440343F341F342034403420341F3401
:1002E0003F344034383440343F34633414340834B9
:1002F0001434633403340434783404340334613400
:10030000593449344D34433400347F34413441341A
:10031000413402340434083410342034003441347D
:10032000413441347F34043402340134023404341F
:1003300040344034403440344034003403340734D3
:1003400008340034203454345434783440347F3406
:100350002834443444343834383444344434443411
:10036000283438344434443428347F3438345434D2
:10037000543454341834003408347E34093402348C
:100380001834A434A4349C3478347F3408340434CE
:1003900004347834003444347D3440340034203420
:1003A000403440343D3400347F34103428344434F5
:1003B0000034003441347F34403400347C3404341D
:1003C0007834043478347C34083404340434783495
:1003D00038344434443444343834FC341834243409
:1003E000243418341834243424341834FC347C3441
:1003F0000834043404340834483454345434543401
:100400002434043404343F34443424343C344034FD
:10041000403420347C341C342034403420341C34A8
:100420003C344034303440343C3444342834103488
:10043000283444344C349034903490347C344434F4
:10044000643454344C344434003408343634413445
:100450000034003400347734003400340034413444
:1004600036340834003402340134023404340234A3
:1004700006308100B108031D452AB208031D452A34
:100480008316091083120914502A36083102031DFD
:10049000502AB208031D502A83160910831209102E
:1004A0003208013C031C5E2A031D5A2A31088F3C86
:1004B000031C5E2AB10A0319B20A602AB201B10113
:1004C0003408133C031C6E2A031D6A2A3308873C38
:1004D000031C6E2AB30A0319B40A882A350B762A3C
:1004E0003608293C031C762AB60A862AB508031D5D
:1004F0007F2A36080C3C03187F2AB603862AB508E3
:10050000031D852A0130B500862AB501B401B30167
:100510003C0B8D2AB70A0319B80A0B118A110A126B
:100520002B28CD34EE34ED306C10D230E430721024
:10053000C4347338EC3079004130840083130008F0
:100540000319AF2A0630F800F701F70BA52AF80BBC
:10055000A42A7B30F700F70BAB2A800BA22A0800F5
:1005600094138C11480893000230941BBE2A831602
:100570001419B82A0030111B01308312F80008004A
:10058000C701831611141118C32A83122C08C8003E
:10059000B0224708C800B0224608C800B02283161F
:1005A00011151119D12A831208003F08AD00400827
:1005B000AC008316081283120812831608120A3040
:1005C0008312C1009C228316081283120816AE30D3
:1005D000C600C022D530C600C0228030C600C0226E
:1005E000A830C600C0223F30C600C022D330C600AB
:1005F000C022C601C0224030C600C0228D30C600D5
:10060000C0223F0B072B1030C600C0220A2B14302B
:10061000C600C0222030C600C022C601C022A130C0
:10062000C600C022C830C600C022DA30C600C022D0
:100630001230C600C0228130C600C0223F0B242BDE
:100640009F30C600C022272BCF30C600C022D93031
:10065000C600C0223F0B302B2230C600C022332BF5
:10066000F130C600C022DB30C600C0224030C600D8
:10067000C022A430C600C022A630C600C0222E3040
:10068000C600C022AF30C600C0228A110A12462D11
:100690002130C600C022C601C0227F30C600C02261
:1006A0002230C600C022C601C0220730C600C022C8
:1006B0008316111411185A2B83122C08C800B0226B
:1006C0004030C800B022C001BF014008033C031CF9
:1006D0006F2BC801B022BF0A0319C00A652B83160D
:1006E00011151119712B831208003F08153C031CCA
:1006F0007C2B4008083C031C812B3F08AE004008BF
:10070000AF000800F701F801470803104818F70781
:10071000F70CF80CC818F707F70CF80C4819F7078E
:10072000F70CF80CC819F707F70CF80C481AF7077C
:10073000F70CF80CC81AF707F70CF80C481BF7076A
:10074000F70CF80CC81BF707F70CF80C0800460864
:10075000F80145020318AF2B4508F700BB2BF70142
:100760000830C700C50DF70D460877020318F700DB
:10077000F80DC70BB22B080042081F3C0318C42B0E
:1007800042087E3C0318C62B3F30C2002130C60011
:10079000C02201302E02C5000630C7004508C8003F
:1007A00082237808C500C600C02201302E02C50091
:1007B0000630C7004508C800822304307807C5000A
:1007C000C600C0222230C600C02201302F02C50060
:1007D000C600C02201302F02C500C600C022831609
:1007E00011141118F12B83122C08C800B0224030CC
:1007F000C800B022C4014408043C031C212C420858
:10080000523C031C102C20304202C600C7000530A9
:10081000C8008223440878074F20F800C3001C2C2E
:1008200053304202C600C7000530C8008223440886
:1008300078075521F800C3004308C800B022C40A55
:10084000FB2B831611151119232C83122E08C500BA
:100850001530C600A72301307707AE00301C362CB8
:100860002E0B362C2F080739013EAF0008000B086D
:10087000BF008B13831603178C170C1400000000A5
:1008800083120313BF1B8B1703170C087F3903193F
:100890008B2C0313BF0003170D080313C0000317AD
:1008A0000F080313C1003F08C200BC234008031710
:1008B0008D000313410803178F0003130B08C200B8
:1008C0008B13831603178C170C140000000083127F
:1008D0000313C21B8B1703170C0D0E0D7F39031961
:1008E0008B2C0313BF0003170D080313C00003175D
:1008F0000F080313C1003F08C200BC2340080317C0
:100900008D000313410803178F008D0A03198F0A06
:100910000313372C031703138A110A12522D1030B8
:10092000C300F701FA01C00CBF0C031C9D2C410849
:10093000F7070318FA0A4208FA07FA0CF70CF90C41
:10094000F80CC30B932C8A110A12882DF801F901B7
:10095000F701FA014408031DB02C43080319CA2CFF
:100960001030C5000310C10DC20DF70DFA0D44087B
:100970007A02031DBD2C43087702031CC62C4308D2
:10098000F702031CFA034408FA020314F80DF90DE8
:10099000C50BB22C080078083F08C5006430C600BB
:1009A000A7237708BF0078083030031DDE2CC01C59
:1009B000E52CC019E52C401A2030E12CC011401262
:1009C0004014F8077808C200BC233F08C5000A306D
:1009D000C600A7237708BF0078083030031DF62C27
:1009E000C019FA2C401CFA2C401A2030F80778085D
:1009F000C200BC233030BF073F08C200BC238A11AD
:100A00000A12AB2D03081F398300FF30AB00AB1572
:100A10002B088316870083122B162B08831687005A
:100A20000C3093002830831294008316941314130F
:100A300001308312AE00AF003014B201B101B40135
:100A4000B301B5001E30B600B801B701BA01B90153
:100A5000BB01BC01BE01BD0183161F149F141F15ED
:100A60009F1107309C0083130230850083128B1680
:100A7000C0308B040230BF00FA30C1009C22BF0B93
:100A80003C2D0230BF007A30C000D52A4823013007
:100A9000BF00C0007523913003178D0002308F0016
:100AA0000313372C1430BF00FA30C1009C22BF0B57
:100AB000542D0630810083160108C739083881009B
:100AC0008312482383160510831205141030F70093
:100AD000F70B682D0000831605108312051083168E
:100AE00085148312851C6F2DB801B701BA01B901B5
:100AF0000130BC0083168514831285187A2DBC0141
:100B00003808C0003708BF00C2013230C1008F2C46
:100B10007908C0007808BF007908C2007808C100D1
:100B2000C4013A30C300A6247908BA007808B90095
:100B30003A08C2003908C100C4010A30C300A62423
:100B40007808BB000130BF00C00075233B08BF0020
:0A0B50000330C000CB2C622D6300BF
:02400E00723FFF
:00000001FF
;PIC16F877A
;CRC=613F  CREATED="24-11-21 03:54"
