:1000000004308A00CB2C0000FF00030E8301A10006
:100010000A08A0008A010408A2007708A300780853
:10002000A4007908A5007A08A60003170D08031399
:10003000A70003170F080313A80003170C080313E6
:10004000A90003170E080313AA00831383128B1E43
:100050002B280B194C28220884002308F7002408B9
:10006000F8002508F9002608FA00270803178D0074
:100070000313280803178F000313290803178C00A4
:1000800003132A0803178E00031320088A00210E89
:100090008300FF0E7F0E09008A110A12382A0A1007
:1000A0008A100A11563E03188A0A8200003400346E
:1000B000003400340034003400345F340034003441
:1000C0000034073400340734003414347F341434DB
:1000D0007F34143424342A347F342A3412342334C1
:1000E000133408346434623436344934563420349A
:1000F00050340034083407340334003400341C34E2
:100100002234413400340034413422341C3400346D
:100110002A341C347F341C342A34083408343E34E6
:1001200008340834003480347034303400340834F7
:10013000083408340834083400340034603460343F
:100140000034203410340834043402343E34513442
:10015000493445343E34003442347F344034003432
:1001600072344934493449344634213441344934B1
:100170004D3433341834143412347F34103427346B
:1001800045344534453439343C344A3449344934AF
:10019000313441342134113409340734363449348C
:1001A00049344934363446344934493429341E34C8
:1001B0000034003414340034003400344034343417
:1001C00000340034003408341434223441341434FC
:1001D00014341434143414340034413422341434B8
:1001E0000834023401345934093406343E3441347D
:1001F0005D3459344E347C341234113412347C342E
:100200007F3449344934493436343E3441344134FE
:10021000413422347F344134413441343E347F34DC
:1002200049344934493441347F3409340934093478
:1002300001343E3441344134513473347F34083412
:10024000083408347F34003441347F34413400347E
:100250002034403441343F3401347F340834143482
:10026000223441347F3440344034403440347F348D
:1002700002341C3402347F347F34043408341034A4
:100280007F343E344134413441343E347F34093488
:100290000934093406343E344134513421345E3457
:1002A0007F3409341934293446340A148A100A1167
:1002B0005C3E03188A0A82002634493449344934A2
:1002C0003234033401347F34013403343F34403456
:1002D000403440343F341F342034403420341F3401
:1002E0003F344034383440343F34633414340834B9
:1002F0001434633403340434783404340334613400
:10030000593449344D34433400347F34413441341A
:10031000413402340434083410342034003441347D
:10032000413441347F34043402340134023404341F
:1003300040344034403440344034003403340734D3
:1003400008340034203454345434783440347F3406
:100350002834443444343834383444344434443411
:10036000283438344434443428347F3438345434D2
:10037000543454341834003408347E34093402348C
:100380001834A434A4349C3478347F3408340434CE
:1003900004347834003444347D3440340034203420
:1003A000403440343D3400347F34103428344434F5
:1003B0000034003441347F34403400347C3404341D
:1003C0007834043478347C34083404340434783495
:1003D00038344434443444343834FC341834243409
:1003E000243418341834243424341834FC347C3441
:1003F0000834043404340834483454345434543401
:100400002434043404343F34443424343C344034FD
:10041000403420347C341C342034403420341C34A8
:100420003C344034303440343C3444342834103488
:10043000283444344C349034903490347C344434F4
:10044000643454344C344434003408343634413445
:100450000034003400347734003400340034413444
:1004600036340834003402340134023404340234A3
:1004700083308100B108031D482AB208031D482AB1
:100480008316091089100911073083128900552A33
:1004900036083102031D552AB208031D552A83165A
:1004A000091089100911831289013208013C031CCB
:1004B000632A031D5F2A31088F3C031C632AB10A9B
:1004C0000319B20A652AB201B1013408133C031CB6
:1004D000732A031D6F2A3308873C031C732AB30A4F
:1004E0000319B40A8D2A350B7B2A3608293C031CD4
:1004F0007B2AB60A8B2AB508031D842A3608083CD5
:100500000318842AB6038B2AB508031D8A2A0130F2
:10051000B5008B2AB501B401B3010B118A110A127F
:100520002B28CD34EE34ED306C10D230E430721024
:10053000C4347338EC307900C8326C366F10F7373A
:100540007236E41000013C30840083130008031964
:10055000B62A0630F800F701F70BAC2AF80BAB2AE5
:100560007B30F700F70BB22A800BA92A08009413FE
:100570008C11430893000230941BC52A831614196A
:10058000BF2A0030111B01308312F8000800C2019D
:10059000831611141118CA2A83122C08C300B7221B
:1005A0004208C300B7224108C300B72283161115C1
:1005B0001119D82A831208003A08AD003B08AC0094
:1005C0008316081283120812831608120A30831247
:1005D000BC00A3228316081283120816AE30C10095
:1005E000C722D530C100C7228030C100C722A83041
:1005F000C100C7223F30C100C722D330C100C7228B
:10060000C101C7224030C100C7228D30C100C722BE
:100610003A0B0E2B1030C100C722112B1430C10031
:10062000C7222030C100C722C101C722A130C100AA
:10063000C722C830C100C722DA30C100C722123039
:10064000C100C7228130C100C7223A0B2B2B9F303B
:10065000C100C7222E2BCF30C100C722D930C10024
:10066000C7223A0B372B2230C100C7223A2BF13078
:10067000C100C722DB30C100C7224030C100C72201
:10068000A430C100C722A630C100C7222E30C1004D
:10069000C722AF30C100C7228A110A120F2D2130A4
:1006A000C100C722C101C7227F30C100C72222304A
:1006B000C100C722C101C7220730C100C72283166B
:1006C00011141118612B83122C08C300B72240307B
:1006D000C300B722BB01BA013B08033C031C762BC5
:1006E000C301B722BA0A0319BB0A6C2B8316111572
:1006F0001119782B831208003A08153C031C832B30
:100700003B08083C031C882B3A08AE003B08AF00AE
:100710000800F701F801420803104318F707F70C27
:10072000F80CC318F707F70CF80C4319F707F70C88
:10073000F80CC319F707F70CF80C431AF707F70C76
:10074000F80CC31AF707F70CF80C431BF707F70C64
:10075000F80CC31BF707F70CF80C08004108F80168
:1007600040020318B62B4008F700C22BF7010830EF
:10077000C200C00DF70D410877020318F700F80D0D
:10078000C20BB92B08003D081F3C0318CB2B3D08BA
:100790007E3C0318CD2B3F30BD002130C100C72265
:1007A00001302E02C0000630C2004008C300892379
:1007B0007808C000C100C72201302E02C0000630F8
:1007C000C2004008C300892304307807C000C1007C
:1007D000C7222230C100C72201302F02C000C10051
:1007E000C72201302F02C000C100C7228316111496
:1007F0001118F82B83122C08C300B7224030C30015
:10080000B722BF013F08043C031C282C3D08523C82
:10081000031C172C20303D02C100C2000530C3006C
:1008200089233F0878074F20F800BE00232C53305F
:100830003D02C100C2000530C30089233F0878078C
:100840005521F800BE003E08C300B722BF0A022CA3
:100850008316111511192A2C83122E08C000153089
:10086000C100AE2301307707AE00301C3D2C2E0BAB
:100870003D2C2F080739013EAF0008000B08BA00D5
:100880008B13831603178C170C14000000008312BF
:100890000313BA1B8B1703170C087F390319922C0B
:1008A0000313BA0003170D080313BB0003170F0847
:1008B0000313BC003A08BD00C3233B0803178D0097
:1008C00003133C0803178F0003130B08BD008B13A1
:1008D000831603178C170C140000000083120313F7
:1008E000BD1B8B1703170C0D0E0D7F390319922CAE
:1008F0000313BA0003170D080313BB0003170F08F7
:100900000313BC003A08BD00C3233B0803178D0046
:1009100003133C0803178F008D0A03198F0A031372
:100920003E2C03170313080078083A08C00064300F
:10093000C100AE237708BA0078083030031DA72C19
:10094000BB1CAE2CBB19AE2C3B1A2030AA2CBB1101
:100950003B123B14F8077808BD00C3233A08C000D7
:100960000A30C100AE237708BA0078083030031D82
:10097000BF2CBB19C32C3B1CC32C3B1A2030F807DF
:100980007808BD00C3233030BA073A08BD00C3233E
:100990008A110A12402D03081F398300FF30AB0073
:1009A000AB152B088316870083122B162B08831692
:1009B00087000C3093002830831294008316941320
:1009C000141301308312AE00AF003014B201B10134
:1009D000B401B301B5001E30B600B701B901B801CA
:1009E00083161F149F141F159F1107309C0083133B
:1009F00083128B16C0308B0483308100831601086C
:100A0000C039810002308312BA00FA30BC00A32240
:100A1000BA0B052D0230BA007A30BB00DC2A4F2316
:100A20000130BA00BB007C23913003178D000230E7
:100A30008F0003133E241430BA00FA30BC00A32206
:100A4000BA0B1D2D4F230630BA000230BB007C23A9
:100A50009C3003178D0002308F0003133E240830B2
:100A6000BA00FA30BC00A322BA0B312D0A30BA000A
:100A70000530BB007C233608BA000330BB00942C41
:040A8000362D6300AC
:02400E00723FFF
:00000001FF
;PIC16F877A
;CRC=1705  CREATED="24-11-21 01:18"
