:100000000B308A00382B0000FF00030E8301A10093
:100010000A08A0008A010408A2007708A300780853
:10002000A4007908A5007A08A60003170D08031399
:10003000A70003170F080313A80003170C080313E6
:10004000A90003170E080313AA00831383128B1E43
:100050002B280B194C28220884002308F7002408B9
:10006000F8002508F9002608FA00270803178D0074
:100070000313280803178F000313290803178C00A4
:1000800003132A0803178E00031320088A00210E89
:100090008300FF0E7F0E09008A110A12382A0A1007
:1000A0008A100A11563E03188A0A8200003400346E
:1000B000003400340034003400345F340034003441
:1000C0000034073400340734003414347F341434DB
:1000D0007F34143424342A347F342A3412342334C1
:1000E000133408346434623436344934563420349A
:1000F00050340034083407340334003400341C34E2
:100100002234413400340034413422341C3400346D
:100110002A341C347F341C342A34083408343E34E6
:1001200008340834003480347034303400340834F7
:10013000083408340834083400340034603460343F
:100140000034203410340834043402343E34513442
:10015000493445343E34003442347F344034003432
:1001600072344934493449344634213441344934B1
:100170004D3433341834143412347F34103427346B
:1001800045344534453439343C344A3449344934AF
:10019000313441342134113409340734363449348C
:1001A00049344934363446344934493429341E34C8
:1001B0000034003414340034003400344034343417
:1001C00000340034003408341434223441341434FC
:1001D00014341434143414340034413422341434B8
:1001E0000834023401345934093406343E3441347D
:1001F0005D3459344E347C341234113412347C342E
:100200007F3449344934493436343E3441344134FE
:10021000413422347F344134413441343E347F34DC
:1002200049344934493441347F3409340934093478
:1002300001343E3441344134513473347F34083412
:10024000083408347F34003441347F34413400347E
:100250002034403441343F3401347F340834143482
:10026000223441347F3440344034403440347F348D
:1002700002341C3402347F347F34043408341034A4
:100280007F343E344134413441343E347F34093488
:100290000934093406343E344134513421345E3457
:1002A0007F3409341934293446340A148A100A1167
:1002B0005C3E03188A0A82002634493449344934A2
:1002C0003234033401347F34013403343F34403456
:1002D000403440343F341F342034403420341F3401
:1002E0003F344034383440343F34633414340834B9
:1002F0001434633403340434783404340334613400
:10030000593449344D34433400347F34413441341A
:10031000413402340434083410342034003441347D
:10032000413441347F34043402340134023404341F
:1003300040344034403440344034003403340734D3
:1003400008340034203454345434783440347F3406
:100350002834443444343834383444344434443411
:10036000283438344434443428347F3438345434D2
:10037000543454341834003408347E34093402348C
:100380001834A434A4349C3478347F3408340434CE
:1003900004347834003444347D3440340034203420
:1003A000403440343D3400347F34103428344434F5
:1003B0000034003441347F34403400347C3404341D
:1003C0007834043478347C34083404340434783495
:1003D00038344434443444343834FC341834243409
:1003E000243418341834243424341834FC347C3441
:1003F0000834043404340834483454345434543401
:100400002434043404343F34443424343C344034FD
:10041000403420347C341C342034403420341C34A8
:100420003C344034303440343C3444342834103488
:10043000283444344C349034903490347C344434F4
:10044000643454344C344434003408343634413445
:100450000034003400347734003400340034413444
:1004600036340834003402340134023404340234A3
:1004700006308100B108031D452AB208031D452A34
:100480008316091083120914502A36083102031DFD
:10049000502AB208031D502A83160910831209102E
:1004A0003208013C031C5E2A031D5A2A31088F3C86
:1004B000031C5E2AB10A0319B20A602AB201B10113
:1004C0003408133C031C6E2A031D6A2A3308873C38
:1004D000031C6E2AB30A0319B40A8A2A350B762A3A
:1004E0003608293C031C762AB60A882AB508031D5B
:1004F0007F2A36080C3C03187F2AB603882AB508E1
:10050000031D852A0130B500862AB5010130B700E8
:10051000B401B3013E0B8F2AB80A0319B90A0B11B3
:100520008A110A122B28CD34EE34ED306C10D23003
:10053000E4307210C4347338EC307900A831ED1413
:1005400000016F004D308400831300080319B52AA1
:100550000630F800F701F70BAB2AF80BAA2A7B301C
:10056000F700F70BB12A800BA82A080094138C110E
:10057000570893000230941BC42A83161419BE2A0C
:100580000030111B01308312F8000800D6018316D9
:1005900011141118C92A83122C08D700B622560844
:1005A000D700B6225508D700B622831611151119A7
:1005B000D72A831208004B08AD004C08AC00831604
:1005C000081283120812831608120A308312CD0013
:1005D000A2228316081283120816AE30D500C62256
:1005E000D530D500C6228030D500C622A830D5002F
:1005F000C6223F30D500C622D330D500C622D50151
:10060000C6224030D500C6228D30D500C6224B0B05
:100610000D2B1030D500C622102B1430D500C62269
:100620002030D500C622D501C622A130D500C62271
:10063000C830D500C622DA30D500C6221230D50027
:10064000C6228130D500C6224B0B2A2B9F30D50005
:10065000C6222D2BCF30D500C622D930D500C622D8
:100660004B0B362B2230D500C622392BF130D5006A
:10067000C622DB30D500C6224030D500C622A430C9
:10068000D500C622A630D500C6222E30D500C622FF
:10069000AF30D500C6228A150A128B2B2130D50027
:1006A000C622D501C6227F30D500C6222230D50011
:1006B000C622D501C6220730D500C62283161114E2
:1006C0001118602B83122C08D700B6224030D700B7
:1006D000B622CC01CB014C08033C031C752BD7017F
:1006E000B622CB0A0319CC0A6B2B831611151119EC
:1006F000772B831208004B08153C031C822B4C08F7
:10070000083C031C872B4B08AE004C08AF000800C8
:10071000F701F801560803105718F707F70CF80C03
:10072000D718F707F70CF80C5719F707F70CF80C60
:10073000D719F707F70CF80C571AF707F70CF80C4E
:10074000D71AF707F70CF80C571BF707F70CF80C3C
:10075000D71BF707F70CF80C08005508F8015402EE
:100760000318B52B5408F700C12BF7010830D60049
:10077000D40DF70D550877020318F700F80DD60BC6
:10078000B82B080051081F3C0318CA2B51087E3CA7
:100790000318CC2B3F30D1002130D500C6220130C8
:1007A0002E02D4000630D6005408D70088237808DB
:1007B000D400D500C62201302E02D4000630D60067
:1007C0005408D700882304307807D400D500C62207
:1007D0002230D500C62201302F02D400D500C62217
:1007E00001302F02D400D500C6228316111411182F
:1007F000F72B83122C08D700B6224030D700B62240
:10080000D3015308043C031C272C5108523C031C01
:10081000162C20305102D500D6000530D700882391
:10082000530878074F20F800D200222C5330510291
:10083000D500D6000530D700882353087807552106
:10084000F800D2005208D700B622D30A012C831632
:1008500011151119292C83122E08D4001530D5003A
:10086000AD2301307707AE00301C3C2C2E0B3C2C06
:100870002F080739013EAF0008000B08CB008B138F
:10088000831603178C170C14000000008312031347
:10089000CB1B8B1703170C087F390319912C0313FB
:1008A000CB0003170D080313CC0003170F08031325
:1008B000CD004B08D100C2234C0803178D00031351
:1008C0004D0803178F0003130B08CE008B138316FC
:1008D00003178C170C140000000083120313CE1BA7
:1008E0008B1703170C0D0E0D7F390319912C031371
:1008F000CB0003170D080313CC0003170F080313D5
:10090000CD004B08D100C2234C0803178D00031300
:100910004D0803178F008D0A03198F0A03133D2C0E
:100920000317031308001030CF00F701FA01CC0CB5
:10093000CB0C031CA12C4D08F7070318FA0A4E082C
:10094000FA07FA0CF70CF90CF80CCF0B972C8A1558
:100950000A12DF2BF801F901F701FA015008031D13
:10096000B42C4F080319CE2C1030D1000310CD0D3C
:10097000CE0DF70DFA0D50087A02031DC12C4F0859
:100980007702031CCA2C4F08F702031CFA03500815
:10099000FA020314F80DF90DD10BB62C08008E30B5
:1009A000F7004C08F8004B08F900FA01CC1FDD2CC9
:1009B000F809F909F90A0319F80AF808031DEA2CDD
:1009C0007908F800F9010830F702F808031DEA2C4D
:1009D000F701F32C0310F81BF12CF90DF80DF703B8
:1009E000EA2CCC1FF8138A150A12392C8316380802
:1009F0000319672DC0003C080319672DC0070318B1
:100A0000082D7F30C002031C672D0319672D0C2DA4
:100A10008130C0070318672D4008F700F801F9017D
:100A2000FA013908C400C4173A08C3003B08C200E1
:100A30001830C000C101421C352D3F08FA07031CC5
:100A4000272DF90A031D272DF80A0319C1173E089F
:100A5000F907031C2E2DF80A0319C1173D08BA0027
:100A6000BA173A08F8070318C117C10DF80CF90CAA
:100A7000FA0CC40CC30CC20C0310C00B1A2D0130AD
:100A8000F7070318672DF81B4C2DC40DFA0DF90D4F
:100A9000F80DF7030319672DC41F5D2DFA0A031D16
:100AA0005D2DF90A031D5D2DF80A031D5D2DF80C5F
:100AB000F90CFA0CF70A0319672D3908C1003D0833
:100AC000C106C11F652DF8176B2DF8136B2DF701AB
:100AD000F801F901FA01831208008030831C732D9C
:100AE0008316BD0683128316C201C3013908C100F3
:100AF0003D08C10638080319612EC000F7003C0804
:100B000003196A2EC0020319062E031CC42D3D08CA
:100B1000C600C6173E08C5003F08C400C301031045
:100B2000C60CC50CC40CC30CC00B8E2DC11F9B2D55
:100B300042147E2E421040104216BB3084008313B4
:100B4000932E4212C11BAE2D401CB92DC60CC50CF4
:100B5000C40CC30CF70A0319792EB92DC61BBC2D82
:100B60000310C30DC40DC50DC60DF7030319792E6F
:100B7000AE2D4217262E42133908C100C11FC22DC7
:100B8000C617722EC613722E3C08C000F700380834
:100B9000C0023908C600C6173A08C5003B08C400A1
:100BA000C3010310C60CC50CC40CC30CC00BD02D64
:100BB000C11FDD2DC2147E2EC2104010C216BF30E0
:100BC00084008313932EC212C11BF02D401CFB2DF9
:100BD000C60CC50CC40CC30CF70A0319792EFB2DE7
:100BE000C61BFE2D0310C30DC40DC50DC60DF703A6
:100BF0000319792EF02DC217262EC2133D08C1000D
:100C0000C11F042EC617722EC613722E3D08C600D1
:100C1000C6173E08C5003F08C400C11F132EC613E7
:100C200042157E2E4211C3014010BB308400831355
:100C3000932EC11B3C2E3908C100401C262EC60C29
:100C4000C50CC40CC30CF70A0319792EC31F372E29
:100C5000C40A031D372EC50A031D372EC60A031DFD
:100C6000372EC60CC50CC40CF70A0319792E421B8B
:100C7000BB2DC21BFD2D5B2E8030C606C61F442E29
:100C80007E2E3D08C100512E3908C100C608031D43
:100C9000512EC508031D512EC408031D512EF70106
:100CA000722EC61B5B2E0310C30DC40DC50DC60DE1
:100CB000F70B512E792EC11F5F2EC617722EC61349
:100CC000722E3C08F7003D08C6003E08C5003F08EC
:100CD000C400722E3808F7003908C6003A08C5006B
:100CE0003B08C4004608F8004508F9004408FA002B
:100CF000B12EF701F801F901FA01B12EC301C409BF
:100D0000C509C609C309C30A031D8C2EC40A031DE5
:100D10008C2EC50A0319C60A42189A2DC218DC2D5A
:100D20004219122E412E0008C407031C9D2EC50A2D
:100D3000031D9D2EC60A0319401484030008C5072D
:100D4000031CA52EC60A0319401484030008801F43
:100D5000803AC60703184014421AA12DC21AE32D87
:100D6000192E831208008E30F70083163408F7021C
:100D70003508F9003608F800F917F7080319CB2EE3
:100D80000310F908031DC72EF8080319CB2EF90C20
:100D9000F80CF70BC02EB51FD22EF809F909F80A86
:100DA0000319F90A831208008E30F70083163908F8
:100DB000F8003808F900FA01F808031DE92E79084F
:100DC000F800F9010830F702F808031DE92EF701D1
:100DD000F12E0310F81BF02EF90DF80DF703E92E94
:100DE000F8138312080083144E088316BB00831285
:100DF0004D088316BA0083124C088316B90083127B
:100E00004B088316B800DB30BF000F30BE004930FE
:100E1000BD007F30BC0083126D257A08D2007908AE
:100E2000D1007808D0007708CF005208D6005108CA
:100E3000D5005008D4004F08D3008A1500208A112D
:100E40008A150A12612C4F080319E82FDB0053089A
:100E50000319E82FDB02031C322F7F30DB07031856
:100E6000E82F382F8130DB02031CE82F0319E82F0D
:100E70005B08F700F801F901FA01DA015008D9001E
:100E8000D9175108D8005208D7001930DB0056088E
:100E9000D70203185B2F0130D80203185B2FD90249
:100EA00003185B2FDA0203185B2FDA0AD90AD80A73
:100EB0005608D7078D2F5508D8020318762F013012
:100EC000D9020318762FDA020318762FDA0AD90A24
:100ED0005508D8075608D707031C8D2FD80A031DBD
:100EE0008D2FD90A031D8D2FDA0A8D2F54088038D3
:100EF000D90203188C2F0130DA0203188C2FDA0A7A
:100F000054088038D9075508D807031C6A2FD90A16
:100F1000031D6A2FDA0A6A2F7A14DB0B902F9B2F9E
:100F20000310D70DD80DD90DDA0D0310FA0DF90DF8
:100F3000F80DDC0D472F5C1CA32F0310F80CF90CE7
:100F4000FA0CDC0CA62FF7030319E82FDC1BCF2FBC
:100F50000310D70DD80DD90DDA0D5608D702031896
:100F6000BB2F0130D8020318BB2FD9020318BB2FA7
:100F7000DA02031CDE2F5508D8020318C62F0130F1
:100F8000D9020318C62FDA02031CDE2F540880385A
:100F9000D9020318CF2F0130DA02031CDE2FFA0A20
:100FA000031DDE2FF90A031DDE2FF80A031DDE2FB5
:100FB000F70A0319E82FF80CF90CFA0C5008DB00BB
:100FC0005408DB06DB1FE62FF817EC2FF813EC2F85
:0A0FD000F701F801F901FA01080029
:10100000E201E101E0017F30DF007E308316A000C5
:101010008030A100A201A3017A30A4002A30A500EB
:10102000AA30A600A330A7007530A800B630A900EA
:101030000930AA00B430AB006F30AC004F30AD00C7
:10104000B630AE00AA30AF006930B0008B30B100CE
:10105000F630B200E830B300831256088316B700AA
:10106000831255088316B600831254088316B50000
:10107000831253088316B400BB01BA01B901B80149
:101080003508BC003908BC06BC1F4B2803110310EF
:10109000B51B03147E283508BC003808BD00340891
:1010A000BD0203195928BC1F7E280308013A83009A
:1010B0007E283908BD003508BD0203196528BC1F0C
:1010C0007E280308013A83007E283A08BD003608CE
:1010D000BD0203197128BC1F7E280308013A830052
:1010E0007E283B08BD003708BD0203197D28BC1FC0
:1010F0007E280308013A83007E280310031C8528FC
:1011000083125408803AD40083168312560883163B
:10111000BB00831255088316BA0083125408831645
:10112000B900831253088316B8008330BF00F9302A
:10113000BE002230BD007E30BC008A118312F6242E
:101140008A157A088316B7007908B6007808B500C2
:101150007708B4008A118312B3268A157808E30051
:1011600056088316BB00831255088316BA008312F3
:1011700054088316B900831253088316B8008330CD
:10118000BF00F930BE002230BD007E30BC008A11A5
:101190008312F6248A157A08EC007908EB007808A7
:1011A000EA007708E9008316B90183126308831601
:1011B000B8008A118312D4268A1583146C0883160A
:1011C000BB0083126B088316BA0083126A08831669
:1011D000B900831269088316B8007A08BF0079083D
:1011E000BE007808BD007708BC008A1183126D2507
:1011F0008A157A08E8007908E7007808E600770899
:10120000E5000330E305E30803190A296308023CFB
:10121000031D2E2968088316BB00831267088316F6
:10122000BA00831266088316B90083126508831614
:10123000B800DB30BF000F30BE004930BD007F304A
:10124000BC008A118312F6248A157A08DE00790818
:10125000DD007808DC007708DB00BB29630B772909
:1012600083148316BB01BA01B9017F30B800831221
:1012700068088316BF00831267088316BE008312B6
:1012800066088316BD00831265088316BC008A11A8
:1012900083126D258A157A08EC007908EB0078082E
:1012A000EA007708E9006C088316BB0083126B081C
:1012B0008316BA0083126A088316B900831269087C
:1012C0008316B800DB30BF000F30BE004930BD00D0
:1012D0007F30BC008A118312F6248A157A08DE005A
:1012E0007908DD007808DC007708DB00BB2983146F
:1012F00068088316BB00831267088316BA0083123E
:1013000066088316B900831265088316B800BF010A
:10131000BE01BD017F30BC008A1183126D258A1584
:101320007A08EC007908EB007808EA007708E90011
:101330006C088316BB0083126B088316BA008312F5
:101340006A088316B900831269088316B800DB3077
:10135000BF000F30BE004930BD007F30BC008A1195
:101360008312F6248A157A08DE007908DD007808F1
:10137000DC007708DB00DA01D901D8017F30D70023
:101380005E088316BB0083125D088316BA008312C1
:101390005C088316B90083125B088316B8008312B9
:1013A0005E088316BF0083125D088316BE00831299
:1013B0005C088316BD0083125B088316BC008A118B
:1013C0008312F6248A157A08DE007908DD00780891
:1013D000DC007708DB00E4016408043C031C822A7B
:1013E00062088316BB00831261088316BA00831259
:1013F00060088316B90083125F088316B800831251
:101400005E088316BF0083125D088316BE00831238
:101410005C088316BD0083125B088316BC008A112A
:101420008312F6248A157A08E2007908E100780828
:10143000E0007708DF00640DF700F70DFC30F705DA
:101440007708A03E840083130008E900840A00089E
:10145000EA00840A0008EB00840A0008EC00831606
:10146000BB0083126B088316BA0083126A088316C6
:10147000B900831269088316B800831262088316C4
:10148000BF00831261088316BE00831260088316B2
:10149000BD0083125F088316BC008A118312F624F4
:1014A0008A15EA010408E9006A10831B6A14831094
:1014B0005A088316BB00831259088316BA00831298
:1014C00058088316B900831257088316B8007A08A3
:1014D000BF007908BE007808BD007708BC008A11FB
:1014E00083126D258A156908840083136A1883178F
:1014F0007A08DA007908D9007808D8007708D70088
:10150000E40AEC296308023C0319882A630B8B2A3E
:101510005808803AD8005708F7005808F8005908CA
:10152000F9005A08FA00080078084B08D400643023
:10153000D5008A11AD238A157708CB0078083030A2
:10154000031DA92ACC1CB22ACC19B22A4C1A20306D
:10155000AC2ACC114C124C14F8077808D1008A112F
:10156000C2238A154B08D4000A30D5008A11AD2356
:101570008A157708CB0078083030031DC52ACC19AE
:10158000CB2A4C1CCB2A4C1A2030F8077808D10003
:101590008A11C2238A153030CB074B08D1008A113B
:1015A000C2238A15080020304C1E3030CD004B0875
:1015B000F700CB1FE32AF709F70A7708CB002D3095
:1015C000CD00CC174C144B08D4006430D5008A11E0
:1015D000AD238A157708CB0030307807CE004B0852
:1015E000D4000A30D5008A11AD238A153030770730
:1015F000D00030307807CF004D08F70030304E0271
:101600000319062BCC14CC1B4C151A2B4D08CE00FD
:101610002030CD0030304F020319122B4C14CC1B5C
:10162000CC141A2B031D4C14031D1A2B4E08CF008B
:101630002030CE004C19212BCC18262B4C182B2BEC
:10164000302B4D08D1008A11C2238A154E08D100D3
:101650008A11C2238A154F08D1008A11C2238A1524
:101660005008D1008A11C2238A158A150A122F2D1B
:1016700003081F398300FF30AB00AB152B0883161E
:10168000870083122B162B08831687000C309300DB
:10169000283083129400831694131413013083129C
:1016A000AE00AF003014B201B101B401B301B50016
:1016B0001B30B600B701B901B801BB01BA01BC01CA
:1016C000BD01BE01BF01C301C201C101C001C4010E
:1016D000C501C601C701C801CA01C90183161F148B
:1016E0009F141F159F1107309C0083130230850043
:1016F00083128B16C0308B040230CB00FA30CD0041
:101700008A11A2228A15CB0B7E2B0230CB007A30B5
:10171000CC008A11DB2A8A158A114E238A150130E2
:10172000CB00CC008A117B238A15933003178D00E0
:1017300002308F008A1103133D248A151430CB0028
:10174000FA30CD008A11A2228A15CB0BA02B0630CD
:10175000810083160108C739083881008A11831275
:101760004E238A15370BB82B8A114E238A15B701E1
:1017700083160510831205141030F700F70BBE2BEB
:10178000000083160510831205108316851483123A
:10179000851CC52BB901B801BB01BA010130BE00DF
:1017A0008316851483128518D02BBE013908CC000E
:1017B0003808CB00CE013230CD008A11932C8A1527
:1017C0007908CC007808CB007908CE007808CD00E5
:1017D000D0013A30CF008A11AA248A157908BB00BB
:1017E0007808BA00BB08031D7A2D3A089F3C031CF9
:1017F0007A2DBB08031D002C3A08033C03187A2DF0
:101800003B08CE003A08CD00D0010A30CF008A1143
:10181000AA248A157808BC003B08CE003A08CD00FF
:10182000D0010A30CF008A11AA248A157708BD009A
:101830001B303602CC00D6000630D7008A11882330
:101840008A157808BF00BF1F302C3F08D600FF3034
:10185000D7008A1188238A157808BF00C801322C66
:101860000130C800CC013F08CB00CB1BCC038A1150
:10187000CF2C8A1535308316BB00FA30BA000E30F3
:10188000B9007930B8007A08BF007908BE0078083E
:10189000BD007708BC008A118312F6248A157A08E5
:1018A000C3007908C2007808C1007708C000430867
:1018B000CE004208CD004108CC004008CB008A1180
:1018C000F32E8A157A08CE007908CD007808CC006E
:1018D0007708CB008316B90183123C088316B80041
:1018E0008A118312D4268A154E088316BB008312F0
:1018F0004D088316BA0083124C088316B900831270
:101900004B088316B8007A08BF007908BE00780833
:10191000BD007708BC008A118312F6248A157A0864
:10192000CE007908CD007808CC007708CB007A0883
:10193000D2007908D1007808D0007708CF00D6010E
:10194000D501D4018030D3008A1123278A157A0863
:101950008316B7007908B6007808B5007708B40098
:101960008A118312B3268A157808C4004308D6006A
:101970004208D5004108D4004008D30000207A086E
:10198000CE007908CD007808CC007708CB0083160C
:10199000B90183123C088316B8008A118312D42639
:1019A0008A154E088316BB0083124D088316BA00B1
:1019B00083124C088316B90083124B088316B800B3
:1019C0007A08BF007908BE007808BD007708BC001F
:1019D0008A118312F6248A157A08CE007908CD0080
:1019E0007808CC007708CB007A08D2007908D100BB
:1019F0007808D0007708CF00D601D501D401803017
:101A0000D3008A1123278A157A088316B70079082C
:101A1000B6007808B5007708B4008A118312B3269F
:101A20008A157808C500480B192D44080B3CC600E0
:101A30001C2D0B304407C6004508083CC700013088
:101A4000CB00CC008A117B238A153C08CB000130E7
:101A5000CC0094223D08CB001830CC00D32A0130B2
:101A6000CB000230CC008A117B238A159E300317ED
:101A70008D0002308F008A1103133D248A15460819
:101A8000CB004708CC008A117B238A15A1300317AD
:101A90008D0002308F008A1103133D248A150A300D
:101AA000CB000130CC008A117B238A154608CB007D
:101AB0000130CC0094222030D1008A11C2238A1533
:101AC0004708CB000130CC0094222030D1008A118D
:101AD000C2238A154408CB000130CC009422203068
:101AE000D1008A11C2238A154508CB000130CC00F1
:0A1AF00094227B2DBC01B22B630091
:02400E00723FFF
:00000001FF
;PIC16F877A
;CRC=42F1  CREATED="24-11-21 07:07"
