:1000000004308A00FD2C0000FF00030E8301A100D4
:100010000A08A0008A010408A2007708A300780853
:10002000A4007908A5007A08A60003170D08031399
:10003000A70003170F080313A80003170C080313E6
:10004000A90003170E080313AA00831383128B1E43
:100050002B280B1952288C308400801C31288C18D6
:100060005528220884002308F7002408F8002508F2
:10007000F9002608FA00270803178D000313280843
:1000800003178F000313290803178C0003132A0892
:1000900003178E00031320088A00210E8300FF0E31
:1000A0007F0E09008A110A12412A8A110A128B2A2C
:1000B0000A108A100A115F3E03188A0A820000346F
:1000C0000034003400340034003400345F34003431
:1000D00000340034073400340734003414347F34DF
:1000E00014347F34143424342A347F342A341234C0
:1000F0002334133408346434623436344934563487
:1001000020345034003408340734033400340034CD
:100110001C342234413400340034413422341C3441
:1001200000342A341C347F341C342A340834083414
:100130003E340834083400348034703430340034B1
:100140000834083408340834083400340034603487
:1001500060340034203410340834043402343E3423
:100160005134493445343E34003442347F344034D1
:1001700000347234493449344934463421344134EA
:1001800049344D3433341834143412347F34103439
:10019000273445344534453439343C344A344934C1
:1001A000493431344134213411340934073436347C
:1001B000493449344934363446344934493429348D
:1001C0001E3400340034143400340034003440341D
:1001D00034340034003400340834143422344134CC
:1001E00014341434143414341434003441342234A8
:1001F00014340834023401345934093406343E349A
:1002000041345D3459344E347C3412341134123458
:100210007C347F3449344934493436343E344134B3
:100220004134413422347F344134413441343E340A
:100230007F3449344934493441347F3409340934F2
:10024000093401343E3441344134513473347F3401
:100250000834083408347F34003441347F34413466
:1002600000342034403441343F3401347F34083486
:100270001434223441347F344034403440344034E8
:100280007F3402341C3402347F347F340434083425
:1002900010347F343E344134413441343E347F3471
:1002A00009340934093406343E344134513421349C
:1002B0005E347F3409341934293446340A148A10E0
:1002C0000A11653E03188A0A8200263449344934EB
:1002D00049343234033401347F34013403343F343D
:1002E0004034403440343F341F34203440342034D0
:1002F0001F343F344034383440343F346334143492
:100300000834143463340334043478340434033448
:100310006134593449344D34433400347F344134EA
:10032000413441340234043408341034203400346D
:100330004134413441347F340434023401340234D2
:1003400004344034403440344034403400340334C6
:10035000073408340034203454345434783440346E
:100360007F342834443444343834383444344434C6
:100370004434283438344434443428347F343834D2
:100380005434543454341834003408347E3409342A
:1003900002341834A434A4349C3478347F340834C0
:1003A000043404347834003444347D34403400342C
:1003B0002034403440343D3400347F341034283409
:1003C00044340034003441347F34403400347C34CD
:1003D00004347834043478347C34083404340434F9
:1003E000783438344434443444343834FC341834A5
:1003F0002434243418341834243424341834FC3489
:100400007C340834043404340834483454345434C8
:1004100054342434043404343F34443424343C34D9
:100420004034403420347C341C3420344034203474
:100430001C343C344034303440343C34443428346C
:100440001034283444344C349034903490347C3418
:100450004434643454344C34443400340834363432
:100460004134003400340034773400340034003434
:100470004134363408340034023401340234043454
:10048000023483308100B108031D4E2A83160910FF
:1004900089100911073083128900582A3508310262
:1004A000031D582A83160910891009118312890126
:1004B0003108C73C031C5E2AB10A5F2AB101330828
:1004C000133C031C6D2A031D692A3208873C031C58
:1004D0006D2AB20A0319B30A872A340B752A350824
:1004E000133C031C752AB50A852AB408031D7E2A0D
:1004F00035080A3C03187E2AB503852AB408031D73
:10050000842A0130B400852AB401B301B2010B1171
:100510008A110A123128B708031D922A05140130E6
:10052000B700A02A370B992A05100230B700BA018C
:10053000A02A851C9F2A3A08BB00B701A02ABA0A44
:100540003908273C031CAE2A031DAA2A38080F3C91
:10055000031CAE2AB80A0319B90ABF2AB901B801A7
:10056000B608031DBA2A831606108312061401303A
:10057000B600BF2A8316061083120610B6018C102F
:100580008A110A123128CD34EE34ED306C10D2309D
:10059000E4307210C4347338EC307900C8326C36F1
:1005A0006F10F7377236E410000140308400831377
:1005B00000080319E82A0630F800F701F70BDE2AD5
:1005C000F80BDD2A7B30F700F70BE42A800BDB2ADF
:1005D000080094138C11470893000230941BF72AEB
:1005E00083161419F12A0030111B01308312F80010
:1005F0000800C601831611141118FC2A83122C0856
:10060000C700E9224608C700E9224508C700E922D9
:100610008316111511190A2B831208003E08AD002C
:100620003F08AC00831608128312081283160812C2
:100630000A308312C000D5228316081283120816CE
:10064000AE30C500F922D530C500F9228030C50092
:10065000F922A830C500F9223F30C500F922D33075
:10066000C500F922C501F9224030C500F9228D30BC
:10067000C500F9223E0B402B1030C500F922432B58
:100680001430C500F9222030C500F922C501F92235
:10069000A130C500F922C830C500F922DA30C50002
:1006A000F9221230C500F9228130C500F9223E0B33
:1006B0005D2B9F30C500F922602BCF30C500F92299
:1006C000D930C500F9223E0B692B2230C500F92232
:1006D0006C2BF130C500F922DB30C500F922403027
:1006E000C500F922A430C500F922A630C500F922C0
:1006F0002E30C500F922AF30C500F9228A110A1246
:100700004F2D2130C500F922C501F9227F30C500E7
:10071000F9222230C500F922C501F9220730C500AF
:10072000F922831611141118932B83122C08C70079
:10073000E9224030C700E922BF01BE013F08033C67
:10074000031CA82BC701E922BE0A0319BF0A9E2B6E
:10075000831611151119AA2B831208003E08153CA7
:10076000031CB52B3F08083C031CBA2B3E08AE0007
:100770003F08AF000800F701F801460803104718CA
:10078000F707F70CF80CC718F707F70CF80C471920
:10079000F707F70CF80CC719F707F70CF80C471A0E
:1007A000F707F70CF80CC71AF707F70CF80C471BFC
:1007B000F707F70CF80CC71BF707F70CF80C080045
:1007C0004508F80144020318E82B4408F700F42B0D
:1007D000F7010830C600C40DF70D4508770203186D
:1007E000F700F80DC60BEB2B080041081F3C03185F
:1007F000FD2B41087E3C0318FF2B3F30C100213008
:10080000C500F92201302E02C4000630C60044089B
:10081000C700BB237808C400C500F92201302E02AE
:10082000C4000630C6004408C700BB230430780764
:10083000C400C500F9222230C500F92201302F0280
:10084000C400C500F92201302F02C400C500F922FE
:100850008316111411182A2C83122C08C700E922C0
:100860004030C700E922C3014308043C031C5A2C52
:100870004108523C031C492C20304102C500C600EF
:100880000530C700BB23430878075820F800C20092
:10089000552C53304102C500C6000530C700BB23AC
:1008A000430878075E21F800C2004208C700E92229
:1008B000C30A342C8316111511195C2C83122E08CF
:1008C000C4001530C500E02301307707AE00301CAE
:1008D0006F2C2E0B6F2C2F080739013EAF0008003C
:1008E0000B08BE008B13831603178C170C14000023
:1008F000000083120313BE1B8B1703170C087F39EC
:100900000319C42C0313BE0003170D080313BF0003
:1009100003170F080313C0003E08C100F5233F086A
:1009200003178D000313400803178F0003130B08F0
:10093000C1008B13831603178C170C1400000000E2
:1009400083120313C11B8B1703170C0D0E0D7F3978
:100950000319C42C0313BE0003170D080313BF00B3
:1009600003170F080313C0003E08C100F5233F081A
:1009700003178D000313400803178F008D0A031916
:100980008F0A0313702C03170313080078083E081E
:10099000C4006430C500E0237708BE00780830301A
:1009A000031DD92CBF1CE02CBF19E02C3F1A2030AE
:1009B000DC2CBF113F123F14F8077808C100F52363
:1009C0003E08C4000A30C500E0237708BE0078085E
:1009D0003030031DF12CBF19F52C3F1CF52C3F1AAC
:1009E0002030F8077808C100F5233030BE073E08F4
:1009F000C100F5238A110A12802D03081F398300D4
:100A0000FF30AB00AB152B088316870083122B1623
:100A10002B08831687000C30930028308312940033
:100A200083169413141301308312AE00AF003014F8
:100A3000B101B301B201B4000F30B500B601B70186
:100A4000B901B801BA01BB01BD01BC0183161F1475
:100A50009F141F159F1107309C00831383128B1660
:100A600083168C14C03083128B04023083168600E8
:100A7000833083128100CE30910083160108C03983
:100A80000138810002308312BE00FA30C000D52246
:100A9000BE0B452D0230BE007A30BF000E2B8123E5
:100AA0000130BE00BF00AE23C33003178D000230FB
:100AB0008F00031370241430BE00FA30C000D5221A
:100AC000BE0B5D2D81230630BE000230BF00AE2379
:100AD000CE3003178D0002308F00031370240830CE
:100AE000BE00FA30C000D522BE0B712D0A30BE0008
:100AF0000530BF00AE233A08BE000330BF00C62C4D
:040B0000762D6300EB
:02400E00723FFF
:00000001FF
;PIC16F877A
;CRC=EA17  CREATED="17-11-21 17:17"
