:1000000004308A00A92C00000A108A100A110B3E45
:1000100003188A0A820000340034003400340034AB
:10002000003400345F3400340034003407340034CA
:100030000734003414347F3414347F3414342434BB
:100040002A347F342A341234233413340834643489
:100050006234363449345634203450340034083451
:1000600007340334003400341C3422344134003467
:100070000034413422341C3400342A341C347F349C
:100080001C342A34083408343E340834083400342C
:100090008034703430340034083408340834083480
:1000A00008340034003460346034003420341034B8
:1000B0000834043402343E345134493445343E3437
:1000C000003442347F34403400347234493449348B
:1000D000493446342134413449344D3433341834AE
:1000E000143412347F3410342734453445344534C5
:1000F00039343C344A34493449343134413421347C
:1001000011340934073436344934493449343634E7
:1001100046344934493429341E340034003414340C
:1001200000340034003440343434003400340034BB
:100130000834143422344134143414341434143450
:100140001434003441342234143408340234013479
:100150005934093406343E3441345D3459344E3414
:100160007C341234113412347C347F3449344934B1
:10017000493436343E3441344134413422347F34BE
:100180004134413441343E347F3449344934493474
:1001900041347F3409340934093401343E34413464
:1001A0004134513473347F340834083408347F3494
:1001B000003441347F3441340034203440344134FD
:1001C0003F3401347F3408341434223441347F34D2
:1001D00040344034403440347F3402341C340234E0
:1001E0007F347F340434083410347F343E34413457
:1001F000413441343E347F340934093409340634FF
:100200003E344134513421345E347F34093419345E
:10021000293446340A148A100A11820726344934D4
:10022000493449343234033401347F3401340334E3
:100230003F344034403440343F341F342034403461
:1002400020341F343F344034383440343F34633436
:1002500014340834143463340334043478340434E8
:1002600003346134593449344D34433400347F34D9
:1002700041344134413402340434083410342034DD
:1002800000344134413441347F3404340234013485
:100290000234043440344034403440344034003478
:1002A000033407340834003420345434543478345C
:1002B00040347F342834443444343834383444347B
:1002C00044344434283438344434443428347F3477
:1002D00038345434543454341834003408347E34AC
:1002E000093402341834A434A4349C3478347F3470
:1002F0000834043404347834003444347D344034D5
:1003000000342034403440343D3400347F341034E1
:10031000283444340034003441347F3440340034D1
:100320007C3404347834043478347C340834043431
:100330000434783438344434443444343834FC3469
:10034000183424342434183418342434243418341D
:10035000FC347C34083404340434083448345434D1
:10036000543454342434043404343F344434243472
:100370003C344034403420347C341C342034403409
:1003800020341C343C344034303440343C34443425
:1003900028341034283444344C349034903490341D
:1003A0007C344434643454344C344434003408349D
:1003B00036344134003400340034773400340034AF
:1003C0000034413436340834003402340134023409
:1003D000043402344937F4327233E131693767103B
:1003E000D024C3183623B81BB720A03B693A681045
:1003F000D329C418331836104F2645222032E93944
:100400007036E13C0000C8326C366F10F737723638
:10041000E4100001C8326C366F10F7377236E41002
:1004200000012B308400831300080319242A0630AE
:10043000F800F701F70B1A2AF80B192A7B30F7009E
:10044000F70B202A800B172A080094138C1132080E
:1004500093000230941B332A831614192D2A00307E
:10046000111B01308312F8000800B101831611142A
:100470001118382A83122108B20025223108B2004F
:1004800025223008B2002522831611151119462A9B
:10049000831208002908A2002A08A1008316081266
:1004A00083120812831608120A308312AB0011223D
:1004B0008316081283120816AE30B0003522D530EC
:1004C000B00035228030B0003522A830B00035228F
:1004D0003F30B0003522D330B0003522B001352294
:1004E0004030B00035228D30B0003522290B7C2AF7
:1004F0001030B00035227F2A1430B0003522203071
:10050000B0003522B0013522A130B0003522C8300C
:10051000B0003522DA30B00035221230B00035227A
:100520008130B0003522290B992A9F30B000352246
:100530009C2ACF30B0003522D930B0003522290BAB
:10054000A52A2230B0003522A82AF130B000352289
:10055000DB30B00035224030B0003522A430B0008E
:100560003522A630B00035222E30B0003522AF3013
:10057000B00035228A110A12DC2C2130B00035225D
:10058000B00135227F30B00035222230B000352254
:10059000B00135220730B00035228316111411182E
:1005A000CF2A83122108B20025224030B200252232
:1005B000AA01A9012A08033C031CE42AB20125224E
:1005C000A90A0319AA0ADA2A831611151119E62AAB
:1005D000831208002908153C031CF12A2A08083C4C
:1005E000031CF62A2908A3002A08A4000800F70122
:1005F000F801310803103218F707F70CF80CB2189D
:10060000F707F70CF80C3219F707F70CF80CB219CA
:10061000F707F70CF80C321AF707F70CF80CB21AB8
:10062000F707F70CF80C321BF707F70CF80CB21BA6
:10063000F707F70CF80C08003008F8012F02031830
:10064000242B2F08F700302BF7010830B100AF0D35
:10065000F70D300877020318F700F80DB10B272BC0
:1006600008002C081F3C0318392B2C087E3C03186B
:100670003B2B3F30AC002130B0003522013023024B
:10068000AF000630B1002F08B200F7227808AF00A3
:10069000B000352201302302AF000630B1002F0830
:1006A000B200F72204307807AF00B00035222230C4
:1006B000B000352201302402AF00B00035220130F5
:1006C0002402AF00B0003522831611141118662BD6
:1006D00083122108B20025224030B2002522AE014B
:1006E0002E08043C031C962B2C08523C031C852B23
:1006F00020302C02B000B1000530B200F7222E08E5
:1007000078070420F800AD00912B53302C02B00084
:10071000B1000530B200F7222E0878070A21F80050
:10072000AD002D08B2002522AE0A702B83161115DC
:100730001119982B83122308AF001530B0001C2329
:1007400001307707A300251CAB2B230BAB2B240810
:100750000739013EA40008000B08A9008B1383167B
:1007600003178C170C140000000083120313A91B3D
:100770008B1703170C087F390319002C0313A900EA
:1007800003170D080313AA0003170F080313AB0088
:100790002908AC0031232A0803178D0003132B0806
:1007A00003178F0003130B08AC008B13831603177A
:1007B0008C170C140000000083120313AC1B8B1762
:1007C00003170C0D0E0D7F390319002C0313A9001C
:1007D00003170D080313AA0003170F080313AB0038
:1007E0002908AC0031232A0803178D0003132B08B6
:1007F00003178F008D0A03198F0A0313AC2B0317FD
:10080000031308002630B0003522B0013522290834
:10081000B0003522B00135222A08B0003522B001DF
:100820003522FF30B00035222F30B00035228A113A
:100830000A12072D2E30B000352208002730B000F4
:100840003522B00135222908B0003522B001352209
:100850002A08B0003522B0013522FF30B000352221
:100860002F30B00035228A110A12132DA330B000A8
:100870003522B00135224030B00035222930B00099
:100880003522B00135222908B0003522B0013522C9
:100890002A08B00035220130B00035222F30B000D8
:1008A00035228A110A121F2DA330B0003522B00163
:1008B00035224030B00035222A30B0003522B00158
:1008C00035222908B0003522B00135222A08B000AF
:1008D00035220130B00035222F30B00035228A1188
:1008E0000A122B2D78082A08AF006430B0001C23B0
:1008F0007708AA0078083030031D852CAB1C8C2C9F
:10090000AB198C2C2B1A2030882CAB112B122B14EA
:10091000F8077808AC0031232A08AF000A30B0008D
:100920001C237708AA0078083030031D9D2CAB19D2
:10093000A12C2B1CA12C2B1A2030F8077808AC0016
:1009400031233030AA072A08AC0031238A110A1259
:100950005A2D03081F398300FF30A000A01520087E
:1009600083168700831220162008831687000C3018
:1009700093002830831294008316941314130130CB
:100980008312A300A4002514A601A801A7018316C1
:100990001F149F141F159F1107309C0083130230F2
:1009A0008312A900FA30AB001122A90BD22C02301D
:1009B000A9007A30AA004A2ABD220130A900AA0063
:1009C000EA22EA3003178D0001308F000313AC23B5
:1009D0001430A900FA30AB001122A90BEA2CBD2279
:1009E0000630A9000230AA00EA22033003178D0066
:1009F00002308F000313AC230830A900FA30AB009B
:100A00001122A90BFE2C0130A900AA00022C0C30E7
:100A1000A900FA30AB001122A90B092D1A240130CC
:100A2000A900AA001E2C0C30A900FA30AB0011223C
:100A3000A90B152D1A240130A900AA00362C0C3060
:100A4000A900FA30AB001122A90B212D1A24013084
:100A5000A900AA00542C0C30A900FA30AB001122D6
:100A6000A90B2D2D1A240C30A900FA30AB0011224D
:100A7000A90B352DBD220630A9000230AA00EA22BA
:100A80000A3003178D0002308F000313AC230830A7
:100A9000A900FA30AB001122A90B492D0A30A90098
:100AA0000530AA00EA222608A60AA900AA000330F7
:100AB000AB00722C0230A900FA30AB001122A90B56
:060AC0005C2D4E2D6300C9
:02400E00723FFF
:00000001FF
;PIC16F877A
;CRC=CE89  CREATED="16-11-21 23:45"
